:020000040800F2
:10000000609700205D020008650200086702000892
:10001000690200086B0200086D0200080000000081
:100020000000000000000000000000009D0100082A
:100030007102000800000000F9010008F9460008FC
:1000400077020008770200087702000877020008AC
:10005000770200087702000877020008770200089C
:10006000770200087702000877020008770200088C
:10007000F50C0008050D0008150D000877020008B2
:100080002D0D00083D0D0008C50800087702000886
:10009000770200087702000877020008770200085C
:1000A000770200087702000877020008770200084C
:1000B00077020008770200087D4A000877020008EE
:1000C000770200087702000877020008770200082C
:1000D00077020008ED540008FD540008115500088F
:1000E000770200087702000877020008770200080C
:1000F00077020008770200087702000877020008FC
:1001000077020008770200087702000877020008EB
:10011000594D0008770200087702000877020008AE
:1001200077020008770200087702000877020008CB
:1001300077020008770200087702000877020008BB
:1001400077020008770200087702000877020008AB
:10015000770200087702000877020008770200089B
:10016000770200087702000877020008770200088B
:1001700077020008770200087702000800000000FC
:100180007702000877020008DFF80CD000F022FAAE
:1001900000480047D55F0008609700202C4B196885
:1001A0000868B0E8F04F80F30988BFF36F8F4FF015
:1001B000000080F3118870470000000008480068C4
:1001C000006880F308884FF0000080F3148862B65E
:1001D00061B6BFF34F8FBFF36F8F00DF00BF00BF6B
:1001E00008ED00E0DFF80C00016841F470010160E7
:1001F000704700BF88ED00E0EFF30980BFF36F8F19
:10020000134B1A681EF0100F08BF20ED108A20E96A
:10021000F04F106009B44FF0500080F31188BFF325
:100220004F8FBFF36F8F07F03BFB4FF0000080F361
:10023000118809BC19680868B0E8F04F1EF0100F6B
:1002400008BFB0EC108A80F30988BFF36F8F704746
:1002500084000020EFF305807047000006488047C7
:1002600006480047FEE7FEE7FEE7FEE7FEE7FEE79B
:10027000FEE7FEE7FEE7FEE72D47000889010008DC
:100280002DE9F05F0546002092469B4688460646CB
:10029000814640241BE0284641464746224600F05E
:1002A000F4F853465A46C01A914110D311461846E5
:1002B000224600F0DBF82D1A67EB01084F46224674
:1002C0000120002100F0D2F817EB00094E41201E5A
:1002D000A4F10104DFDC484631462A464346BDE826
:1002E000F09F40EA01039B0703D009E008C9121FF1
:1002F00008C0042AFAD203E011F8013B00F8013BE0
:10030000521EF9D27047D2B201E000F8012B491E0B
:10031000FBD270470022F6E710B513460A460446A2
:100320001946FFF7F0FF204610BD2DE9FE4F81EA88
:10033000030404F0004421F0004100944FF0000B4E
:1003400023F0004350EA01045ED052EA03045BD07C
:10035000C3F30A54C1F30A552C44A4F2F3340194B4
:10036000A0FB0254C1F3130141F48011C3F3130342
:1003700043F4801301FB024400FB034E840A970AF6
:1003800044EA815447EA8357A4FB076802958D0A23
:1003900005FB07854FEA932C04FB0C542705029DAF
:1003A0004FEA065847EA1637B5EB08056EEB070C1F
:1003B000870E920E47EA811742EA8312A7FB0201D9
:1003C000B6EB0B0164EB00042B0D43EA0C335E1813
:1003D00044EB1C50DA465146E7FB0201C5F3130417
:1003E0004FEA0B3343EA14534FEA0432019C43EAC9
:1003F0000603A4F10C040294009CCDE900B400F0C3
:100400009AF803B0BDE8F08F00200146F9E700F04C
:10041000004230F000400AD0C10D01F56071C0F318
:10042000160042EA0151C2084007114370470020FC
:100430000146704701F0004330B421F0004150EA1A
:10044000010206D00A0DA2F56072C1F31301002A61
:1004500002DC30BC00207047440F44EAC104C100F4
:10046000E01830BC00EBC25000F01FB8202A04DBBB
:10047000203A00FA02F1002070479140C2F12003B7
:1004800020FA03F3194390407047202A04DB203AF6
:1004900021FA02F00021704721FA02F3D040C2F1A4
:1004A000200291400843194670470029A8BF7047B1
:1004B000401C490008BF20F00100704710B4B0FA9A
:1004C00080FC00FA0CF050EA010404BF10BC704735
:1004D00049B1CCF1200421FA04F411FA0CF118BF4F
:1004E000012121430843A3EB0C01CB1D4FEA00611E
:1004F0004FEA102042BF002010BC704700EBC350F1
:1005000010440029A4BF10BC7047401C490008BF1C
:1005100020F0010010BC704710B5141E73F10004E8
:1005200008DA401C41F1000192185B411A4301D1E5
:1005300020F0010010BD2DE9F04D92469B4611B10F
:10054000B1FA81F202E0B0FA80F220329046FFF771
:100550008DFF04460F4640EA0A0041EA0B0153466C
:100560005A46084313D0114653EA010019D0C8F186
:1005700040025046FFF789FF05460E465046594651
:100580004246FFF773FF084305D0012004E02046F0
:100590003946BDE8F08D0020054346EAE0762C435D
:1005A00037430A986305E40AA0EB08000022FD0A1D
:1005B00044EA47540A3002D500200146E9E7010524
:1005C00010196941DDE9084500196941BDE8F04DA0
:1005D000A2E70000064C074D06E0E06840F001038A
:1005E00094E8070098471034AC42F6D3FFF7D0FDEB
:1005F0006C8F00088C8F00082DE9FE4F804681EA41
:100600000300C00F0C46009021F0004123F000458C
:10061000B8EB0200A94105D24046214690461C464F
:100620000B46024623F00040104347D0270DC7F386
:100630000A00C3F30A510290401A019040286BDA75
:10064000C3F3130040F4801B0098924620B10023AE
:10065000D2EB030A63EB0B0B01985946C0F1400241
:100660005046FFF703FF06460D4650465946019A8D
:1006700000F015F910EB08006141002487EA1152DF
:1006800084EAE7731A4340D0009A62B3019A012AC0
:100690004FEA075215DC001B61EB02014FF00042EC
:1006A00002EA0752CDE90042001C41F580113246B2
:1006B0002B46FFF740FF03B0BDE8F08F40462146D0
:1006C000F9E7001B61EB0201001C41F580130018E3
:1006D0005B412018A2F5001747EB030140EAD570F3
:1006E000B6196D4111E06D084FEA360645EAC0754E
:1006F0004FEA0752001B61EB0201001C41F580111B
:1007000049084FEA30000019514132462B4603B0E8
:10071000BDE8F04FFFF700BF009801224000002322
:10072000D0EB020263EBE073009821464FEAE074DD
:10073000B8EB000061EB0401E9E783F000435BE7FD
:1007400081F0004158E72DE9F04D81EA030404F0FF
:10075000004B21F0004514464FF0000A23F0004101
:1007600050EA050220D054EA01021DD0C5F30A5711
:100770000246C5F31303C1F31300C1F30A5640F454
:10078000801543F48013A7EB0608101BD64608F229
:10079000FD3873EB050002D308F1010801E092185F
:1007A0005B41B8F1000F03DA00200146BDE8F08D8F
:1007B00000204FF48011064684460EE0171B73EBB1
:1007C000050705D3121B63EB050306434CEA010C36
:1007D00049084FEA300092185B4150EA0107EDD119
:1007E00052EA030012D082EA040083EA05010843BA
:1007F00005D0101BAB4106D20122002306E00022E7
:100800004FF0004302E06FF0010253101AEB0600B4
:100810004CEB085110EB0A0041EB0B01BDE8F04D29
:10082000FFF77ABE0EB5C10F80EAE0700844CA0730
:10083000002140F233438DE80E000A460B46FFF7D5
:100840007AFE03B000BD0EB540F2334102910021A3
:10085000CDE900110A460B46FFF76DFE03B000BD5F
:1008600070B5C1F30A5201F000450024C1F3130131
:1008700040F2FF3341F480119A4201DA002070BD4A
:1008800040F233439A42A2F2334203DC5242FFF772
:10089000FCFD00E090402C43F1D0404270BD202A86
:1008A00006DBCB17203A41FA02F043EAE07306E098
:1008B00041FA02F3D040C2F12002914008431946A8
:1008C0007047000010B5024800F0A9FB10BD000001
:1008D0008404002055494A6822F440324A604A683C
:1008E00043681A434A600268526822F480720368BF
:1008F0005A6002685368026943EA022203685A6038
:100900000268526822F0407203685A6002685268B6
:1009100083681A4303685A600268926822F400628E
:1009200003689A6002689268C3681A4303689A6011
:100930003F4B826A9A4218D00268926822F0706235
:1009400003689A6002689268836A1A4303689A602F
:100950000268926822F0405203689A6002689268C6
:10096000C36A1A4303689A600BE00268926822F037
:10097000706203689A600268926822F040520368CD
:100980009A600268926822F0020203689A60026824
:100990009368027E43EA420203689A602022125C56
:1009A000A2B10268526842F4006203685A600268A9
:1009B000526822F4604203685A6002685368426ACF
:1009C000521E43EA423203685A6005E002685268E8
:1009D00022F4006203685A600268D26A22F470024C
:1009E0000368DA620268D36A828B521E43EA0252BB
:1009F0000368DA620268926822F4007203689A60FF
:100A00000268936890F8302043EA422203689A60B3
:100A10000268926822F4806203689A6002689368B0
:100A2000426943EA822203689A60704700230140CA
:100A30000100000F00B585B00020019002900390E6
:100A400004902348234908604FF480304860002117
:100A5000204881600161017680F82010C1621E4942
:100A600081620021C1600121C161002180F8301044
:100A70000121416100BF002000901848006840F447
:100A80008070164908600846006800F48070009085
:100A900000BF00BF0F4800F07DFB0820019001203F
:100AA0000290039001A90B4800F0EAF9022000230C
:100AB0000322012100900A4803F0B0FF0022052123
:100AC000122001F098F8122001F085F805B000BD61
:100AD00000200140840400200100000F443802403F
:100AE0000004024010B5FFF7A5FF00F02DF810BD7F
:100AF00010B5064805F048FC05490860054A002184
:100B0000054805F0DBFC0549086010BDCC8C0008E9
:100B100044000020A88C0008210B000840000020A1
:100B20000FE04FF0FF310748006805F0EFFB00F0E1
:100B30000BF80448006805F08DFC41F2883005F0A0
:100B400071FAEEE74400002010B5264800F0BAFB29
:100B50001421244800F054FB224800F059FA00F414
:100B60000070B0F5007F3BD11E4800F054FA1E49DA
:100B70008860084690ED020AB8EEC00ADFED1B0A55
:100B800060EE200A9FED1A1A80EE810ADFED190A45
:100B900020EE200A80ED010AD0ED010A9FED161A21
:100BA0009FED160A10EE810ABDEEC00A80ED030A21
:100BB000C068642801DD642007E00B48C068002895
:100BC00001DA002001E00848C0680749C86008460B
:100BD000C0680F2801DC012000E0002002490870F5
:100BE00010BD000084040020CC04002033335340A7
:100BF00000008045CDCCCC400000C84200C08A44F3
:100C000008B5002001231A4610210090014803F086
:100C100005FF08BD0004024010B50A4805F0B4FB0A
:100C200009490860094A0421012005F0A7FA08498A
:100C30000860084A0021084805F040FC07490860A0
:100C400010BD0000808C000838000020908C000847
:100C50003C0000205C8C0008950C0008340000204B
:100C600001B5009880B100210848006805F04EFBEE
:100C700050B900231A4669460548006805F0D8FABD
:100C80000248006805F0E6FB08BD000038000020BF
:100C90003C00002024E04FF0FF33002211491248AD
:100CA000006805F01FFAD8B94FF0FF310F4800680F
:100CB00005F02CFB012210210D4803F0D4FE094859
:100CC000006805F0AFF900221021094803F0CBFEBF
:100CD0000548006805F0FAFA0448006805F0BAFB18
:100CE000D9E70000300000203C0000203800002040
:100CF0000004024010B5024800F0ECFB10BD0000FB
:100D0000C805002010B5024800F0E4FB10BD00004B
:100D10001C05002010B5034800F0DCFB024800F081
:100D20009EF810BD280600208805002010B5024856
:100D300000F0D0FB10BD00008001002010B503487A
:100D400000F0C8FB024800F08AF810BDE001002066
:100D5000400100200146087810381823B0FBF3F258
:100D60000848805CC865032A05D908686FF3090044
:100D7000001D886503E008686FF309008865886DC9
:100D800070470000288D0008014600208A6A8B69A0
:100D9000CBB932B1012A0DD0022A03D0032A10D1D7
:100DA0000EE000BFCB6A03F08073B3F1807F00D107
:100DB000012007E0CB6AB3F1C07F00D1012001E040
:100DC00000E000BF34E08B69B3F5005F1AD132B1A7
:100DD000012A07D0022A03D0032A11D10AE000BF5A
:100DE00001200EE0CB6A03F08073B3F1807F00D165
:100DF000012006E0CB6AB3F1C07F00D1012000E002
:100E000000BF15E032B1012A05D0022A04D0032A1E
:100E10000CD103E000BF00BF012008E0CB6A03F063
:100E20008073B3F1807F00D1012000E000BF00BFDC
:100E3000704730B50468246824F4802405682C6069
:100E4000046863608468402C04D10468A26004686C
:100E5000E16003E00468A1600468E26030BD90F8DE
:100E60003910212903D1202180F8391006E090F8AB
:100E70003910232902D1222180F839107047704798
:100E800038B502460020009000BF92F83C000128CF
:100E900001D1022038BD012082F83C0000BF086863
:100EA000092816D91068C0680C780A3C04EB440580
:100EB0000724AC40A0431468E0600C780A3C04EBC3
:100EC00044048868A0401468E46820431468E06023
:100ED00013E0106800690C7804EB44050724AC406B
:100EE000A043146820610C7804EB44048868A04097
:100EF000146824692043146820614868072817D2C1
:100F00001068406B0C79641E04EB84051F24AC4010
:100F1000A04314686063088880B20C79641E04EBF7
:100F20008404A0401468646B20431468606331E05B
:100F300048680D2817D21068006B0C79E41F04EB89
:100F400084051F24AC40A04314682063088880B245
:100F50000C79E41F04EB8404A0401468246B204344
:100F60001468206316E01068C06A0C790D3C04EB2D
:100F700084051F24AC40A0431468E062088880B256
:100F80000C790D3C04EB8404A0401468E46A20430F
:100F90001468E062194B1A4C1068A04206D1086828
:100FA000122803D1586840F480005860144C10682F
:100FB000A0421CD10868102802D00868112816D158
:100FC000586840F400005860086810280FD10D4898
:100FD00000680D4CB0FBF4F000EB80004000009086
:100FE00002E00098401E009000980028F9D100BF50
:100FF000002082F83C0000BF00BF4BE70023014007
:10100000002001408000002040420F0070477047E0
:101010000146086C704701460868C06C704770B59F
:1010200004460025002620680068C0F340052068BB
:101030004068C0F3401695B38EB3206C00F01000EA
:1010400018B9206C40F4007020642068806800F0BB
:101050004050E8B9207ED8B92068C06A00F470001A
:1010600020B12068806800F4806088B920684068FA
:1010700020F0200021684860206C20F480702064FB
:10108000206C00F4805018B9206C40F001002064FE
:101090002046FFF7BBFF6FF0120021680860206850
:1010A0000068C0F3800520684068C0F3C016E5B34F
:1010B000DEB3206C00F0100018B9206C40F4005032
:1010C00020642068806800F4401038BB2068806B82
:1010D00000F4401020B12068806800F48060E8B916
:1010E0002068406800F48060C0B92068806800F023
:1010F000405098B9207E88B92068406820F0800070
:1011000021684860206C20F480502064206C00F43A
:10111000807018B9206C40F0010020642046FFF771
:10112000AEFE6FF00C00216808602068006800F0D7
:10113000010520684068C0F3801685B17EB1206843
:10114000006800F0010050B1206C40F48030206451
:10115000204600F053F86FF0010021680860206815
:101160000068C0F3401520684068C0F380667DB118
:1011700076B1606C40F0020060646FF0200021687E
:1011800008602046FFF743FF6FF0200021680860E9
:1011900070BD000070B5044600250CB9012070BD7B
:1011A0001549A06A884200D000BF206C30B92046A3
:1011B00000F025F80020606484F83C00206C00F00A
:1011C000100088B9206C20F4885040F002002064A0
:1011D0002046FFF77FFB00206064206C20F00200B7
:1011E00040F00100206400E0012500BF002084F8E9
:1011F0003C0000BF2846D2E70100000F704770474F
:1012000070B504460D4600262068806800F48060B2
:10121000B0F5806F11D12068806800F48070B0F55F
:10122000807F0AD1206C40F02000206400BF0020A5
:1012300084F83C0000BF012070BD00F031FC064680
:1012400012E0681C80B125B100F02AFC801BA84286
:101250000AD9206C40F00400206400BF002084F80C
:101260003C0000BF0320E7E72068006800F00200B0
:101270000228E6D16FF0120021680860206C40F46B
:10128000007020642068806800F04050B8B9207E6B
:10129000A8B92068C06A00F4700020B12068806896
:1012A00000F4806058B9206C20F480702064206CB9
:1012B00000F4805018B9206C40F001002064002038
:1012C000BAE7000008B501460020009000BF91F881
:1012D0003C00012801D1022008BD012081F83C001A
:1012E00000BF0868806800F00100A0B90868806845
:1012F00040F001000B6898603B4800683B4BB0FB36
:10130000F3F000EB4000009002E00098401E0090D7
:1013100000980028F9D10868806800F001000028D2
:101320005FD0086C40F20163984340F48070086419
:101330000868406800F4806028B1086C20F4005010
:1013400040F480500864086C00F48050B0F5805F71
:1013500004D1486C20F00600486401E00020486495
:1013600000BF002081F83C0000BF214A6FF022003E
:101370000B681860506800F01F0018BB1D4B086810
:10138000984213D01C4B0868984204D1101D006885
:1013900000F01F0050B1194B0868984221D1144841
:1013A000001D006800F01F0010281AD2086880682D
:1013B00000F0405028B90868806840F080400B6811
:1013C00098600EE00B4B086898420AD10868806864
:1013D00000F0405028B90868806840F080400B68F1
:1013E0009860002078E700008000002040420F0055
:1013F0000023014000200140002101400022014063
:1014000070B50446A56D00F04BFB064694F8350018
:10141000022808D08020606500BF002084F83400D6
:1014200000BF012070BD2068006820F01600216810
:1014300008602068406920F0800021684861206CC5
:1014400008B9A06C28B12068006820F00800216865
:1014500008602068006820F00100216808600FE043
:1014600000F01EFB801B05280AD92020606500BF04
:10147000002084F8340000BF032084F83500D1E751
:101480002068006800F001000028E9D194F85C10A1
:101490003F208840A86000BF002084F8340000BFCF
:1014A000012084F835000020BCE7014691F83500A2
:1014B000022803D08020486501207047052081F86C
:1014C00035000868006820F001000A6810600020FC
:1014D000F3E70000F8B50446002000908C4800684F
:1014E0004FF41651B0FBF1F7A56D2E6894F85C101F
:1014F00008208840304098B12068006800F004005F
:1015000070B12068006820F004002168086094F839
:101510005C1008208840A860606D40F001006065A4
:1015200094F85C1001208840304068B12068406920
:1015300000F0800040B194F85C1001208840A86061
:10154000606D40F00200606594F85C1004208840F3
:10155000304068B12068006800F0020040B194F8A3
:101560005C1004208840A860606D40F00400606555
:1015700094F85C1010208840304078B320680068F0
:1015800000F0080050B394F85C1010208840A86068
:101590002068006800F4802080B12068006800F4B2
:1015A000002028B9206CC8B12046216C884715E07E
:1015B000A06C98B12046A16C88470FE020680068B5
:1015C00000F4807028B92068006820F008002168C5
:1015D0000860206C10B12046216C884794F85C109C
:1015E000202088403040002865D02068006800F046
:1015F000100000285FD094F85C1020208840A8607C
:1016000094F83500052828D12068006820F01600DD
:10161000216808602068406920F0800021684861E6
:10162000206C08B9A06C28B12068006820F0080080
:101630002168086094F85C103F208840A86000BFD3
:10164000002084F8340000BF012084F83500206DAC
:1016500010B12046216D8847F8BD2068006800F46D
:10166000802080B12068006800F4002028B9606CF8
:1016700010B12046616C88471DE0E06BD8B1204670
:10168000E16B884717E02068006800F4807068B953
:101690002068006820F010002168086000BF00206A
:1016A00084F8340000BF012084F83500E06B10B1ED
:1016B0002046E16B8847606D38B3606D00F0010033
:1016C000F0B1052084F835002068006820F00100A2
:1016D0002168086000BF0098401C0090B84200D903
:1016E00005E02068006800F001000028F3D100BF89
:1016F00000BF002084F8340000BF012084F83500CA
:10170000E06C10B12046E16C884700BFA4E7000000
:10171000800000202DE9F0410446002500F0C0F9CA
:10172000074614B90120BDE8F081606A00B100BF2E
:1017300000BF002084F8340000BF022084F8350088
:101740002068006820F00100216808600AE000F0CD
:10175000A7F9C01B052805D920206065032084F85F
:101760003500E0E72068006800F001000028EED1B5
:101770002068056821480540D4E901010843E16873
:1017800008432169084361690843A1690843E16985
:101790000843216A08430543606A042803D1D4E959
:1017A0000B0108430543206805602068456925F062
:1017B0000705606A0543606A04280DD1A06A0543E5
:1017C000E06A48B12046FFF7DFFA28B140206065A3
:1017D000012084F83500A6E7206845612046FFF720
:1017E000B9FA064694F85C103F208840B0600020AB
:1017F0006065012084F83500002094E73F8010F0F8
:101800002DE9F04704460D4616461F464FF00008E6
:10181000D4F8589000BF94F83400012802D1022077
:10182000BDE8F087012084F8340000BF94F835004B
:10183000012825D1022084F83500002060653B4650
:10184000324629462046FFF7F4FA94F85C103F2010
:101850008840C9F808002068006840F01600216838
:101860000860206C28B12068006840F008002168FA
:1018700008602068006840F001002168086006E008
:1018800000BF002084F8340000BF4FF0020840463B
:10189000C6E70000F8B502460B46002500240020EC
:1018A0000021DCE0012606FA01F51E6806EA0504BF
:1018B000AC4273D15E68012E08D05E68022E05D05E
:1018C0005E68112E02D05E68122E13D190684F0010
:1018D0000326BE40B0434F00DE68BE4030439060F8
:1018E000506801268E40B0431E79C6F300168E4024
:1018F00030435060D0684F000326BE40B0434F00D5
:101900009E68BE403043D0605E68022E02D05E68A2
:10191000122E13D1CF0802F1200656F827004E07E9
:10192000F70E0F26BE40B0434F07FF0E1E69BE40A4
:101930003043CF0802F1200646F8270010684F0018
:101940000326BE40B0431E7906F003064F00BE409A
:10195000304310605E6806F08056B6F1805F7DD13E
:1019600000BF00260096404E366846F480463E4F43
:101970003E603E46366806F48046009600BF00BFD3
:101980003A4E8F0856F827008E07370F0F26BE40B5
:10199000B043374EB24202D1002624E05EE0354E1D
:1019A000B24201D101261EE0334EB24201D10226DD
:1019B00019E0324EB24201D1032614E0304EB24259
:1019C00001D104260FE02F4EB24201D105260AE0D4
:1019D0002D4EB24201D1062605E02C4EB24201D175
:1019E000072600E008268F073F0FBE4030431F4EFA
:1019F0008F0846F82700264E3068A0435E6806F43C
:101A00008036B6F5803F00D12043214E3060361D30
:101A10003068A0435E6806F40036B6F5003F00D19A
:101A200020431B4E361D3060361D3068A0435E6873
:101A300006F48016B6F5801F00D12043144E0836F8
:101A40003060361D3068A0435E6806F40016B6F5B7
:101A5000001F00D120430E4E0C363060491C102967
:101A6000FFF420AFF8BD00004438024008380140C0
:101A7000000002400004024000080240000C024046
:101A8000001002400014024000180240001C0240F6
:101A9000003C01400AB1816101E00B0483617047A1
:101AA00001480068704700007400002070B50446CB
:101AB0000CB9012070BD4CF6CC402168086045F29D
:101AC000555021680860D4E9001048602168A0687A
:101AD0008860FFF7E5FF054606E0FFF7E1FF401BE2
:101AE000302801D90320E5E72068C0680028F4D138
:101AF0004AF6AA20216808600020DBE701464AF682
:101B0000AA200A68106000207047000010B50D4838
:101B1000006840F400700B4908600846006840F413
:101B2000806008600846006840F480700860032008
:101B300000F0A0F8002000F007F800F04BF80020BB
:101B400010BD0000003C024070B588B0044600257E
:101B50000026002221461E2000F04DF81E2000F035
:101B60003AF800BF002001901648006840F00400D9
:101B7000144908600846006800F00400019000BFA6
:101B800000BF02A903A800F04BF900F071F945006D
:101B90000D48B5FBF0F0461E0C480D49086040F2B8
:101BA000E7310B48C160466000210161816000F0AF
:101BB000B1FC20B9064800F0C8FC08B070BD012097
:101BC000FBE700004038024040420F0000080040A0
:101BD00000010020704701460846002809DB00F09C
:101BE0001F0301229A4043099B0003F1E023C3F83D
:101BF000002100BF70472DE9F05F80460D46164674
:101C0000002703F0C1FC074639462A46334601F057
:101C10000700C0F1070ABAF1040F02D94FF0040A15
:101C200001E0C0F1070AD14600F1040ABAF1070F3A
:101C300002D24FF0000A01E0A0F1030AD4464FF0AF
:101C4000010A0AFA09FAAAF1010A0AEA020A0AFAD8
:101C50000CFA4FF0010B0BFA0CFBABF1010B0BEA8A
:101C6000030B4AEA0B042146404603F095FCBDE80D
:101C7000F09F000000BF00F00702064B19684FF606
:101C8000FF031940044B0B4343EA0221014B196047
:101C900000BF70470CED00E00000FA0570B5044687
:101CA0000D460CB9012070BD5848006800F00F00C7
:101CB000A84209D255490D700846006800F00F008F
:101CC000A84201D00120EEE7207800F002000228AF
:101CD0001DD1207800F00400042805D14C4800688C
:101CE00040F4E0504A490860207800F008000828D5
:101CF00005D14748006840F46040454908604448C1
:101D0000006820F0F000A16808434149086020788D
:101D100000F00100A8B36068012807D13C480838EA
:101D20000068C0F34040B8B90120BCE760680228F1
:101D300002D06068032807D1354808380068C0F32E
:101D4000406048B90120AEE7314808380068C0F368
:101D5000400008B90120A6E72D48006820F00300E4
:101D6000616808432A490860FFF79AFE064609E0C1
:101D7000FFF796FE801B41F28831884202D903208A
:101D800091E707E02248006800F00C006168B0EBC2
:101D9000810FEDD11D48006800F00F00A84209D95D
:101DA0001A490D700846006800F00F00A84201D0E3
:101DB000012078E7207800F00400042807D11448B7
:101DC000006820F4E050E168084311490860207879
:101DD00000F00800082808D10D48006820F4604091
:101DE000216940EAC1000A49086000F061F8084929
:101DF0000968C1F30311074A515CC84006490860ED
:101E000006480068FFF7A0FE00204CE7003C0240B7
:101E100008380240308D0008800000207800002043
:101E20000F2202600D4A126802F0030242600B4A60
:101E3000126802F0F0028260084A126802F4E0526E
:101E4000C260064A126802F46042D2080261044A83
:101E5000126802F00F020A60704700000838024062
:101E6000003C0240014800687047000080000020EC
:101E700000B5FFF7F7FF04490968C1F38221034A5F
:101E8000515CC84000BD000008380240408D000889
:101E900000B5FFF7E7FF04490968C1F34231034A7F
:101EA000515CC84000BD000008380240408D000869
:101EB0002DE9F047002400250026A14625480068AA
:101EC00000F00C0020B1042805D008283AD105E024
:101ED000DFF8849039E0DFF8849036E01D48001F79
:101EE000006800F03F041B48001F006800F48000F9
:101EF00078B11A481749091F0968C1F38811A0FB76
:101F000001700146224600233846FEF7B9F905461E
:101F10000EE011480F49091F0968C1F38811A0FBA1
:101F200001700146224600233846FEF7A9F905460E
:101F30000848001F0068C0F30140401C4600B5FB84
:101F4000F6F902E0DFF8109000BF00BF4846BDE898
:101F5000F0870000083802400024F40000127A00E4
:101F6000F8B504460CB90120F8BD207800F0010056
:101F7000002874D0F948006800F00C0004280DD047
:101F8000F648006800F00C00082813D1F348001F41
:101F9000006800F48000B0F5800F0BD1EF480838DE
:101FA0000068C0F34040002859D06068002856D12E
:101FB0000120D9E700BF6068B0F5803F08D1E7484D
:101FC0000838006840F48030E449083908601EE0B1
:101FD0006068B0F5A02F0DD1E0480838006840F4E3
:101FE0008020DE49083908600846006840F48030E7
:101FF00008600CE0D9480838006820F48030D749E0
:10200000083908600846006820F48020086000BF96
:10201000606890B1FFF744FD054606E0FFF740FD1C
:10202000401B642801D903209EE7CC48083800688B
:10203000C0F340400028F1D011E0FFF731FD054624
:1020400006E0FFF72DFD401B642801D903208BE734
:10205000C24808380068C0F340400028F1D1207819
:1020600000F0020002285FD1BC48006800F00C00BC
:1020700058B1BA48006800F00C0008281CD1B748D5
:10208000001F006800F48000B0B9B4480838006848
:10209000C0F3400020B1E068012801D0012063E7CF
:1020A000AE480838006820F0F800216940EAC10015
:1020B000AA490839086037E0E06800B30120A84960
:1020C0000860FFF7EDFC054606E0FFF7E9FC401B62
:1020D000022801D9032047E7A04808380068C0F368
:1020E00040000028F1D09D480838006820F0F80032
:1020F000216940EAC10099490839086014E00020CC
:1021000097490860FFF7CCFC054606E0FFF7C8FCDE
:10211000401B022801D9032026E7904808380068B0
:10212000C0F340000028F1D1207800F00800082812
:102130002CD16069A8B101208A490860FFF7B0FC82
:10214000054606E0FFF7ACFC401B022801D903203E
:102150000AE782486C300068C0F340000028F1D0E4
:1021600014E000207F490860FFF79AFC054606E06E
:10217000FFF796FC401B022801D90320F4E67748BC
:102180006C300068C0F340000028F1D1207800F0E6
:102190000400042870D1002770483830006800F02F
:1021A000805090B900BF002000906C483830006823
:1021B00040F080506949383108600846006800F0F6
:1021C0008050009000BF00BF01276748006800F4FE
:1021D0008070B0B96448006840F48070624908605B
:1021E000FFF75EFC054606E0FFF75AFC401B02289D
:1021F00001D90320B8E65C48006800F4807000282C
:10220000F2D000BFA068012808D1544868300068A7
:1022100040F001005149683108601DE0A0680528C0
:102220000DD14E486830006840F004004B496831D9
:1022300008600846006840F0010008600CE047486C
:102240006830006820F001004449683108600846A1
:10225000006820F00400086000BFA068A8B1FFF784
:102260001FFC054609E0FFF71BFC401B41F28831CB
:10227000884202D9032077E626E0384868300068B3
:10228000C0F340000028EED013E0FFF709FC05463C
:1022900008E0FFF705FC401B41F28831884201D974
:1022A000032061E62D4868300068C0F34000002834
:1022B000EFD1012F07D129483830006820F0805035
:1022C00026493831086000BFA069002845D023485E
:1022D000006800F00C0008285DD0A069022845D1F4
:1022E00000201F490866FFF7DBFB054606E0FFF705
:1022F000D7FB401B022801D9032035E617480838D0
:102300000068C0F340600028F1D1D4E90701084318
:10231000616A40EA81110122A06AC2EB500041EAE1
:1023200000412C20005D41EA00600C49091F086053
:1023300001200B490866FFF7B3FB054606E0FFF7EF
:10234000AFFB401B022801D903200DE603480838E3
:102350000068C0F340600028F1D03FE00838024038
:1023600000004742800E47420070004000201C4998
:102370000866FFF795FB054606E0FFF791FB401B5B
:10238000022801D90320EFE516480068C0F3406039
:102390000028F2D122E0A069012800D1E4E511482B
:1023A000001D066806F48001E069814214D106F040
:1023B0003F01206A81420FD147F6C0703040616A08
:1023C000884209D106F44031A06A814204D106F066
:1023D0007061E06A814201D00120C5E50020C3E5BB
:1023E00000004742003802407047704710B503466E
:1023F000002200BF93F83C00012801D1022010BD4B
:10240000012083F83C0000BF22F0FF00CC6840EAC6
:10241000040222F440708C6840EA040222F48060D6
:102420004C6840EA040222F400600C6840EA0402AE
:1024300022F480500C6940EA040222F400504C69F6
:1024400040EA040222F48040CC6940EA04021868A1
:10245000426400BF002083F83C0000BF00BFCEE70D
:1024600030B502460B4600BF92F83C00012801D16E
:10247000022030BD012082F83C0000BF022082F81B
:102480003D00106844681068816824F07004186882
:10249000044310684460184D1068A8421BD01068AF
:1024A000B0F1804F17D0154D1068A84213D0144DCD
:1024B0001068A8420FD0134D1068A8420BD0124DDF
:1024C0001068A84207D0114D1068A84203D0104DE3
:1024D0001068A84205D121F08001586801431068B6
:1024E0008160012082F83D0000BF002082F83C009E
:1024F00000BF00BFBDE70000000001400004004035
:1025000000080040000C0040000401400040014071
:102510000018004010B504460CB9012010BD94F815
:102520003D0028B9002084F83C00204600F00CF85B
:10253000022084F83D00211D206802F0A7FA012046
:1025400084F83D000020E9E7704701460868C0684C
:1025500040F001000B68D8600868806800F007024E
:10256000062A05D00868006840F001000B68186072
:10257000002070472DE9F04104460D4614B90120B2
:10258000BDE8F08194F83D0028B9002084F83C00B3
:10259000204600F046F8022084F83D00206880685C
:1025A00044F20701884321688860211D206802F0F9
:1025B0006DFA2068D0F80880206886692068076A6C
:1025C000286840EA080840F203308643A969A868F1
:1025D00040EA0120064340F60C4086434FF2F000EB
:1025E0008643E969E86840EA01200643286900015A
:1025F000296A40EA0130064327F0220727F08807BE
:102600006969686840EA011007432068C0F80880DB
:102610002068866120680762012084F83D00002060
:10262000AEE7704730B504460D4615B1042D0CD108
:1026300005E001220021206802F094FA10E0012256
:102640000421206802F08EFA0AE0012200212068AD
:1026500002F088FA01220421206802F083FA00BF08
:1026600000BF2068006840F0010021680860002079
:1026700030BD704710B5044620680069C0F34000C3
:10268000D8B12068C068C0F34000B0B16FF002005C
:1026900021680861012020772068806900F003002C
:1026A00018B12046FFF7E5FF05E0204600F0ADF841
:1026B000204600F04AF90020207720680069C0F326
:1026C0008000D8B12068C068C0F38000B0B16FF05E
:1026D000040021680861022020772068806900F4E6
:1026E000407018B12046FFF7C4FF05E0204600F017
:1026F0008CF8204600F029F9002020772068006936
:10270000C0F3C000D8B12068C068C0F3C000B0B149
:102710006FF0080021680861042020772068C069F4
:1027200000F0030018B12046FFF7A3FF05E02046A4
:1027300000F06BF8204600F008F9002020772068B0
:102740000069C0F30010D8B12068C068C0F3001061
:10275000B0B16FF010002168086108202077206870
:10276000C06900F4407018B12046FFF782FF05E011
:10277000204600F04AF8204600F0E7F800202077D5
:102780002068006900F0010058B12068C06800F0BE
:10279000010030B16FF0010021680861204600F0AF
:1027A00001F920680069C0F3C01058B12068C06802
:1027B000C0F3C01030B16FF080002168086120467E
:1027C000FFF712FE20680069C0F3801058B120683E
:1027D000C068C0F3801030B16FF04000216808611C
:1027E000204600F0E0F820680069C0F3401058B1BE
:1027F0002068C068C0F3401030B16FF0200021683D
:1028000008612046FFF7F1FD10BD704770B5044622
:102810000D46164600BF94F83C00012801D1022065
:1028200070BD012084F83C0000BF022084F83D0008
:1028300036B1042E1BD0082E31D00C2E5ED145E0CF
:102840002946206802F0A0F92068806940F008005D
:10285000216888612068806920F00400216888610F
:1028600020688069296908432168886147E0294612
:10287000206802F0C1F92068806940F40060216896
:1028800088612068806920F4806021688861206800
:102890008069296940EA0120216888612FE0294682
:1028A000206802F0E7F92068C06940F0080021685C
:1028B000C8612068C06920F004002168C8612068F0
:1028C000C069296908432168C86118E02946206861
:1028D00002F00CFA2068C06940F400602168C86109
:1028E0002068C06920F480602168C8612068C069E0
:1028F000296940EA01202168C86100E000BF00BFEB
:10290000012084F83D0000BF002084F83C0000BF97
:1029100000BF85E710B504460CB9012010BD94F83E
:102920003D0028B9002084F83C00204600F00CF857
:10293000022084F83D00211D206802F0A7F8012044
:1029400084F83D000020E9E77047704770B5044601
:102950000E4601223146206802F004F90F49206832
:10296000884203D00E492068884201D1012000E04E
:10297000002028B12068406C40F400402168486481
:102980002068806800F00705062D05D020680068E3
:1029900040F0010021680860002070BD0000014087
:1029A000000401407047704770B504460025206858
:1029B0004069C0F3C01594F8390021280ED16DB1DB
:1029C0002068406920F0800021684861206B10B1C8
:1029D000206BFEF715FD204602F066FA206840697C
:1029E000C0F3801594F83A0022280ED16DB120680A
:1029F000406920F0400021684861606B10B1606B55
:102A0000FEF7FEFC204602F02FFA002070BD704752
:102A10002DE9F0470446206805682068C6682068EC
:102A200047694FF00008C14605F00F08B8F1000FE4
:102A30000AD105F0200038B106F0200020B1204670
:102A400002F03CFABDE8F087B8F1000F72D007F051
:102A5000010018B906F4907000286BD005F0010051
:102A600030B106F4807018B1E06B40F00100E06313
:102A700005F0040030B107F0010018B1E06B40F040
:102A80000200E06305F0020030B107F0010018B168
:102A9000E06B40F00400E06305F0080048B106F088
:102AA000200010B907F0010018B1E06B40F00800F9
:102AB000E063E06B70B305F0200028B106F0200061
:102AC00010B1204602F0FAF920684069C0F380197D
:102AD000E06B00F0080010B9B9F1000F23D02046D8
:102AE00002F0C2F92068406900F04000402816D189
:102AF0002068406920F0400021684861606B50B157
:102B00001748616B0865606BFEF7CFFC10B1606B16
:102B1000016D88470CE02046FFF779FF08E020466A
:102B2000FFF775FF04E02046FFF771FF0020E06328
:102B300088E7FFE705F0800030B106F0800018B1AB
:102B4000204602F069FC7DE705F0400030B106F058
:102B5000400018B1204602F097F973E700BF71E713
:102B60006D4D000810B504460CB9012010BDA069D8
:102B700000B100E000BF94F8390028B9002084F8C3
:102B80003800204600F027F8242084F83900206817
:102B9000C06820F400502168C860204602F048FA5E
:102BA0002068006920F4904021680861206840692D
:102BB00020F02A00216848612068C06840F4005075
:102BC0002168C8600020E063202084F8390084F880
:102BD0003A000020CAE7704777B581B00446154631
:102BE00094F83A00202850D1029800B115B901207C
:102BF00004B070BD00BF94F83800012801D1022054
:102C0000F6E7012084F8380000BF0298A062A5858D
:102C10000020E063222084F83A001D48616BC863FD
:102C20001C48616B08641C48616BC8640020616BC0
:102C3000086502AE32682368191D2B46606BFEF7EB
:102C4000DFFD00BF00200090206800680090206831
:102C50004068009000BF00BF00BF002084F838002B
:102C600000BF2068C06840F480702168C860206898
:102C7000406940F00100216848612068406940F0E7
:102C80004000216848610020B2E70220B0E7000060
:102C9000D14D0008174E0008814D0008704770475D
:102CA0002DE9F84304460D4616461F464FF000092D
:102CB00094F8390020285DD105B116B90120BDE88E
:102CC000F88300BF94F83800012801D10220F6E70C
:102CD000012084F8380000BF0020E063212084F840
:102CE0003900FEF7DDFE8146A684E68400BF0020A1
:102CF00084F8380000BF2BE0E08C401EE084A06820
:102D0000B0F5805F16D14B46002280212046009707
:102D100002F0B6FB08B10320D1E7A846B8F80000DE
:102D2000C0F3080021684860206908B9AD1C0FE0B5
:102D30006D1C0DE04B46002280212046009702F0DA
:102D40009FFB08B10320BAE715F8010B2168486022
:102D5000E08C0028D0D14B4600224021204600972D
:102D600002F08EFB08B10320A9E7202084F8390087
:102D70000020A4E70220A2E7F7B50446154694F820
:102D8000390020283DD1019800B10DB90120FEBDC8
:102D900000BF94F83800012801D10220F7E7012094
:102DA00084F8380000BF01982062A584E5840020E3
:102DB000E063212084F839001348216BC86313486D
:102DC000216B08641248216BC8640020216B0865E0
:102DD00001AE23681A1D31682B46206BFEF710FDEB
:102DE0006FF040002168086000BF002084F83800C0
:102DF00000BF2068406940F08000216848610020E1
:102E0000C5E70220C3E70000254E00085B4E00081E
:102E1000814D00087047704710B504463748FFF7EA
:102E2000C3FD37480068406836490988081A3649A2
:102E300008803648008809880844344908803448A6
:102E4000007808BB207850281FD108460088032846
:102E50000ADB01221146204601F01BFC2D490880A7
:102E600001202B4908701DE0264800882649098862
:102E7000401A244908802848234A1288811821488A
:102E800002881E48FFF7A8FE0CE000201F490880BA
:102E90004FF480701B490880084602881E49174875
:102EA000FFF79AFE1A480078012825D117480188B3
:102EB00018480088C01C81420EDB4FF48070114915
:102EC000088000201249087000231A460F49134851
:102ED000006803F0ADF90FE00A4800880A49098844
:102EE000401A084908800C48074A1288811805488A
:102EF00002880248FFF770FE10BD0000400100206C
:102F000080010020020000200400002006000020B4
:102F100001000020080000204002002010000020D6
:102F20001CB55548554908604FF4E1304860002110
:102F300052488160C16001610C21416100218161C1
:102F4000C16100BF002001904D48006840F400308E
:102F50004B4908600846006800F40030019000BF4B
:102F600000BF4648FFF7FEFD4648474908604FF05E
:102F700000604860002144488160C1604FF4806176
:102F80000161002141618161C1614FF40031016241
:102F90000021416200BF00200190394810380068CC
:102FA00040F400103649103908600846006800F403
:102FB0000010019000BF00BF3348FEF7ABFB0022BA
:102FC00011461020FEF717FE1020FEF704FE00BF8A
:102FD0002D482A49486308462B49886300BF294881
:102FE00018302A4908604FF00060486040212748A7
:102FF00081600021C1604FF4806101610021416165
:103000008161C1614FF40031016200214162FEF72C
:1030100081FB002211461120FEF7EDFD1120FEF785
:10302000DAFD00BF19481549086308461749886347
:1030300000BF0720032100230222CDE90010042154
:10304000134801F0EFFB0720032100230222CDE902
:10305000001008210E4801F0E5FB00220521262082
:10306000FEF7C9FD2620FEF7B6FD0A4802880A4988
:103070000248FFF7B1FD1CBD0044004040010020A4
:10308000403802408860024080010020E0010020BA
:103090000000024002000020400200202DE9F0471D
:1030A0002DED028B07468946154600240023224653
:1030B0003946502001F064FA0444012D1BD101204F
:1030C000C9490870012322463946032001F058FA05
:1030D000204484B2002322463946202001F050FAD1
:1030E000204484B2002322463946012001F048FAE8
:1030F000204484B269E1BC480078012879D1022DCE
:1031000079D103220421384601F064FAB0EE408AF6
:1031100003220821384601F05DFAF0EE408AF0EE15
:10312000680AB0EE480A00F007FA01232246394641
:103130001E2001F025FA204484B20023224639469D
:10314000202001F01DFA204484B2E91EA74800683F
:1031500003F0DCF8A64902232246C869394601F08B
:10316000BFF9204484B2A24902232246486A394664
:1031700001F0B6F9204484B29D4902232246086832
:10318000394601F0ADF9204484B299490223224620
:103190008868394601F0A4F9204484B29348006855
:1031A00003F058F900F006FA9248D0ED000AB0EEAC
:1031B000600A03222146384601F06CF9204484B2AB
:1031C0008C48D0ED010AB0EE600A03222146384651
:1031D00001F060F9204484B28648D0ED020AB0EED6
:1031E000600A03222146384601F054F9204484B293
:1031F000EBE0DAE0FFE7032D3AD100260CE00022F5
:10320000311D384601F045FA00F0FF0841463046CE
:1032100000F0AAFE701CC6B2042EF0DB0123224689
:103220003946062001F0ACF9204484B2002322463E
:103230003946202001F0A4F9204484B24FF0FF3138
:103240006D48006803F062F800260AE06B49885D6B
:1032500000232246394601F093F9204484B2701CC1
:10326000C6B2042EF2DB6448006803F0F3F8ACE069
:10327000042D37D1012322463946082001F080F978
:10328000204484B2002322463946202001F078F9F8
:10329000204484B2691F5A48006803F037F859493E
:1032A000087800232246394601F06AF9204484B2A6
:1032B0005448D0ED010AB0EE600A04222146384697
:1032C00001F038F9204484B24E4900232246C868F0
:1032D000394601F055F9204484B24948006803F0AA
:1032E000B9F872E0052D19D1012322463946032091
:1032F00001F046F9204484B20023224639462020BA
:1033000001F03EF9204484B20023224639463E486B
:10331000007801F035F9204484B256E0072D29D118
:103320000123224639460A2001F02AF9204484B2BA
:10333000002322463946202001F022F9204484B29D
:103340004FF0FF313148006802F0E0FF00260AE04C
:103350002F4951F8260002232246394601F010F980
:10336000204484B2761C022EF2DB2848006803F069
:1033700071F82AE0082D28D102220421384601F0F4
:1033800088F90646FDF76CFC0123224639460220E7
:1033900001F0F6F8204484B200232246394620206A
:1033A00001F0EEF8204484B20FE0012322463946B2
:1033B000022001F0E5F8204484B200232246394679
:1033C000212001F0DDF8204484B2601E82B2234641
:1033D0000021384601F04AF8204484B22046BDEC72
:1033E000028BBDE8F08700000000002018000020DC
:1033F000000400207C050020280000202000002080
:1034000044000020CC040020700000206800002050
:103410005400002010B5074A0421012002F0AEFE3E
:1034200005490860054A0021054803F047F80549A9
:10343000086010BDB48B000810000020908B0008BD
:10344000693400080C00002070B504460D460026C3
:1034500000BF2A4621460348FFF78EFC0646022E8F
:10346000F7D070BD4001002008B500200090002476
:1034700053E04FF4FA63002269462848006802F0DE
:1034800031FEA8BB2548006802F020FFBDF800000F
:10349000401E23490B5CBDF80000801E82B2002153
:1034A0001F4801F019F9012807D11D48C278BDF85D
:1034B0000010FFF7F3FD044606E02122BDF80010DE
:1034C0001748FFF7EBFD044600201649087016491F
:1034D00008804FF480701549088021461048FFF796
:1034E000B3FF124802880E491148FFF775FB14E03C
:1034F000FFE70F48FFF758FA00200E490870094906
:103500000870094908804FF480700849088008460F
:10351000028803490648FFF75FFBAAE71000002076
:1035200040020020010000200600002002000020D0
:10353000400100200000002070B52DED068BB0EE9C
:10354000408AF0EE608A9FED180A28EE800AB0EEFD
:10355000409A38EE490AF0EE409A38EE090AB0EE89
:1035600040AA9FED120A29EE800ADFED110A80EED3
:10357000201ABDEEC10A10EE104A9FED0C0A2AEE89
:10358000000ADFED0B0A80EE201ABDEEC10A10EE34
:10359000105A2146012000F07FFA2946002000F051
:1035A0007BFABDEC068B70BD52383E430040CE45E1
:1035B00019344C4370B52DED0A8B4FF0FF3147485D
:1035C000006802F0A3FE464890ED0C0AB8EEC00A6F
:1035D000DFED440A20EE200AF0EE000A20EE200A79
:1035E000DFED410A20EE200ADFED400A80EE201ACE
:1035F000B0EE418A90ED050AB8EEC00ADFED390A57
:1036000020EE200AF0EE000A20EE200ADFED360A56
:1036100020EE200ADFED350A80EE201AF0EE418A16
:1036200038EEC80ADFED320A80EE201A11EE104A99
:103630002046FCF7ECFE41EC1C0BB0EE4C0AF0EE21
:103640006C0A01F0C9FFB0EE40AAF0EE60AA38EEB5
:10365000880AF0EE000A80EE201A11EE105A284671
:10366000FCF7D5FE41EC1B0B53EC1A2BFCF75DFE6F
:1036700041EC190BFCF7DEFE1E4908602046FCF702
:10368000C6FE41EC1C0BB0EE4C0AF0EE6C0A02F0E8
:1036900007F8B0EE40AAF0EE60AA38EE880AF0EE25
:1036A000000A80EE201A11EE105A2846FCF7AFFEF1
:1036B00041EC1B0B53EC1A2BFCF737FE41EC190BBA
:1036C000FCF7B8FE0B494860084684600348006870
:1036D00002F0C0FEBDEC0A8B70BD00001800002097
:1036E00000040020DA0F4940000002420040CE45AD
:1036F0005238BE437C05002020B90021044A1268DC
:10370000516203E00021034A1268516270470000D1
:1037100080030020C003002000B58DB0242104A840
:10372000FCF7F8FD0020029003904FF080404349E1
:103730000860002048600021404881604FF6FF711A
:10374000C160002101618161032004900020059087
:1037500001200690002007900890099001200A900F
:1037600000200B900C9000BF01903548006840F09D
:103770000100334908600846006800F0010001902C
:1037800000BF00BF04A92D48FEF7F4FE0020029000
:10379000039002A92948FEF763FE2A482A490860D7
:1037A000002048600021284881604FF6FF71C16009
:1037B00000210161816100BF002001902048006864
:1037C00040F002001E4908600846006800F0020050
:1037D000019000BF00BF04A91B48FEF7CBFE02A961
:1037E0001948FEF73DFE0120032103460222CDE9E0
:1037F0000010C103154801F015F80120032103460C
:103800000222CDE900100821114801F00BF8022036
:10381000032101230246CDE9001040210B4801F0AD
:1038200001F80220032101230246CDE90010802186
:10383000064800F0F7FF0DB000BD00008003002037
:103840004038024000040040C00300200000024055
:103850000004024008B500F01BFAFFF75DFF0021ED
:103860002C48FFF773F80C212A48FFF76FF83C212A
:103870002948FEF7D7FE3C212848FEF7D3FE012059
:103880000346024640210090254801F0C7F8012078
:103890000346024680210090214801F0BFF8012034
:1038A00003460246010200901D4801F0B7F80120CE
:1038B0000346024641020090194801F0AFF800208B
:1038C00024E00021C0EBC002164B03EB8202116121
:1038D000C0EBC00203EB82025160C0EBC00243F8B0
:1038E0002210C0EBC00203EB8202D160C0EBC00229
:1038F00003EB82025161C0EBC00203EB82029161D3
:10390000C0EBC00203EB82029160401C0228D8DBAE
:1039100008BD00004003002080030020C0030020F9
:103920000004024000040020014621B90548006857
:10393000406A00B2704704480068406A404200B2E2
:10394000F8E7000080030020C003002010B50948FC
:1039500002F01AFD08490860084B00221146084889
:1039600002F016FE074908601E210648006802F0B2
:1039700073FE10BDDC8B000818000020CC8B000803
:10398000C93A00081400002070B588B005460C46FE
:10399000002642F20800844200DD04E03B488442F5
:1039A00000DA00E020460446002C06DA201E01DB87
:1039B000014600E041420C4601261C2101A8FCF70B
:1039C000A9FC60200190029400200390059065BB43
:1039D00054B9002240212E4801F045F800228021F0
:1039E0002B4801F040F816E0012E0AD101224021B7
:1039F000274801F038F800228021254801F033F8EB
:103A000009E000224021224801F02DF80122802106
:103A10001F4801F028F8002201A91E48FEF7F6FE13
:103A200000211C48FEF792FF2EE0012D2CD154B945
:103A300000222902164801F016F8002269021448F3
:103A400001F011F817E0012E0AD1002231021048CE
:103A500001F009F8012251020D4801F004F80AE0D2
:103A6000012211020A4800F0FEFF00224FF400710B
:103A7000074800F0F8FF0C2201A90648FEF7C6FE31
:103A80000C210448FEF762FF08B070BDF8DFFFFFAD
:103A9000000402404003002070B504460D464FF07C
:103AA000FF310748006802F031FCC4EBC40005494F
:103AB00001EB800085600248006802F0CBFC70BD1D
:103AC000180000200004002070B506464FF0FF31BA
:103AD0006648006802F01AFC0024BAE0E0B2FFF782
:103AE00023FF00EE100AB8EEC00ADFED610A20EEF7
:103AF000200AF3EE0E0A80EE201ABDEEC10A10EE87
:103B0000100AC4EBC4015B4A42F82100C4EBC400B4
:103B1000114651F8200000EE100AB8EEC00ADFEDA1
:103B2000560A20EE200ADFED550A80EE201ABDEE7F
:103B3000C10AC4EBC40001EB800080ED010AE0B2D1
:103B4000FFF7F2FE021E01DB104600E05042C4EB1C
:103B5000C401484B03EB8101C9680844C4EBC401AC
:103B600003EB8101C860E0B2FFF7DEFEC4EBC401E5
:103B7000404A02EB810149690844C4EBC40102EBED
:103B800081014861E0B2FFF7B7FDC4EBC4003949D9
:103B900001EB80008068C4EBC401364A52F8211062
:103BA000451AC4EBC400114601EB80008069281A55
:103BB00000EE100AB8EEC00ADFED310A60EE200A0E
:103BC00000EE105AB8EEC00A9FED2E1A41EE000A20
:103BD000BDEEE00A10EE100AC4EBC40102EB810155
:103BE00009690844C4EBC40102EB81010861C4EB1C
:103BF000C400114601EB80008561C4EBC40001EBF9
:103C00008000006942F20801884201DD084610E0A8
:103C1000C4EBC400174901EB800000691A498842CF
:103C200001DA084605E0C4EBC400124901EB80004C
:103C30000069C4EBC4010F4A02EB81010861C4EBC7
:103C4000C4020C4B03EB8202E0B21169FFF79CFE49
:103C5000641C022CFFF642AF0448006802F0FAFB35
:103C60001E210A48006802F0F7FC70BD1800002011
:103C700000007A4400040020000070420040CE455D
:103C8000CDCC4C3ECDCCCC3DF8DFFFFF1400002066
:103C900000B593B00020119012901C210AA8FCF7E7
:103CA00039FB202102A8FCF735FB30483049086079
:103CB0000120486000212E48816042F2CF01C1609E
:103CC000002101614161816100BF0020019029480C
:103CD000006840F00100274908600846006800F0CD
:103CE0000100019000BF00BF2148FEF713FE002035
:103CF0001190129011A91E48FEF7B2FB60200A90A5
:103D000000200B900C900D900E900F9010900022C0
:103D10000AA91748FEF77AFD0C220AA91448FEF7F3
:103D200075FD0020029003900490059006904FF4DA
:103D3000005007900020099002A90D48FEF756FB9D
:103D40000120032103460222CDE9001001020A48A6
:103D500000F068FD0120032103460222CDE9001096
:103D6000C102054800F05EFD13B000BD0000014037
:103D700040030020443802400000024010B5044ACD
:103D80000021044802F09AFB0349086010BD0000BE
:103D9000EC8B00089D3D00081C00002020E001F095
:103DA000C1FB4FF0FF310F48006802F0AFFA0E4838
:103DB000007800EE100AB8EE400ADFED0C0AB4EE0F
:103DC000600AF1EE10FA03D14FF47A70FCF748FF65
:103DD0000448006802F03EFB4FF4FA6002F022F95A
:103DE000DDE7000044000020CC0400209A99314116
:103DF0001CB52648264908604FF41650486000213B
:103E000023488160C16001610C2141610021816111
:103E1000C16100BF002001901E48006840F0100002
:103E20001C4908600846006800F01000019000BFBF
:103E300000BF1748FEF796FE072003210023022249
:103E4000CDE900101102144800F0ECFC072003211A
:103E500000230222CDE9001051020F4800F0E2FCDD
:103E6000002205212520FDF7C6FE2520FDF7B3FE23
:103E7000002408E05A20094908555A21204600F03C
:103E80003FF8601CC4B2042CF4DB1CBD00100140E0
:103E90003804002044380240000002402000002086
:103EA00010B50A4802F070FA09490860094A04216D
:103EB000012002F063F908490860084A0021084817
:103EC00002F0FCFA0749086010BD0000348C0008BD
:103ED00028000020448C00082C000020108C0008D2
:103EE000A93F00082400002001B54FF6FF7301220E
:103EF00069460248FEF7D4FE08BD000038040020E1
:103F000070B506460D4600EE105AF8EE400A9FEDD9
:103F1000141A9FED140A00EE810ABDEEC00A10EEDD
:103F2000100A04B2B4F5FA7F02DA4FF4FA7005E031
:103F300040F6C410844200DD00E020460446FF2025
:103F4000FFF7D2FF0220FFF7CFFF3046FFF7CCFF8D
:103F5000E0B2FFF7C9FFC4F30720FFF7C5FF70BD4C
:103F60008FC231410000FA4338B504460D464FF484
:103F70007A710B48006802F0C9F978B98DF80040F1
:103F80008DF8015000231A4669460648006802F081
:103F90004FF90348006802F05DFA00BF38BD000029
:103FA000280000202C00002008B525E04FF0FF334A
:103FB000002269461148006802F094F8E0B94FF019
:103FC000FF310F48006802F0A1F99DF801009DF84B
:103FD00000100C4A50549DF801109DF80000FFF7A6
:103FE0008FFF0648006802F071F90A2002F01AF803
:103FF0000348006802F02EFAD8E700002C000020E9
:1040000028000020200000207047000038B504463A
:104010002F48FEF7C9FC2F48006840682E490988E0
:10402000081A2E4908802E480088098808442C491F
:1040300008802C48007890B92078FF2803D101200F
:10404000284908700BE000202549088008202249F3
:1040500008800846028824491D48FEF7BDFD214816
:104060000078012832D11E48008804281EDB002079
:104070001C4908701A4908800820174908802078D0
:1040800061780844A1780844C5B2E078A8420CD110
:10409000A178607801EB0020009000231A46694661
:1040A0001248006802F0C4F800BF0FE00A48008818
:1040B0000A490988401A084908800B48074A1288AB
:1040C0008118054802880248FEF786FD38BD0000C9
:1040D000DC0400201C0500205C0000205E000020A5
:1040E0006000002051000020480000206C000020EB
:1040F0001CB53F483F4908604FF416504860002106
:104100003C488160C16001610C21416100218161F5
:10411000C16100BF002001903748006840F40020D2
:10412000354908600846006800F40020019000BF8F
:1041300000BF3048FEF716FD3048314908604005A1
:10414000486000212E488160C1604FF480610161A8
:10415000002141618161C1614FF480310162002120
:10416000416200BF0020019023481038006840F4ED
:1041700000102149103908600846006800F400105A
:10418000019000BF00BF1E48FDF7C4FA002211468F
:104190000D20FDF730FD0D20FDF71DFD00BF184877
:1041A0001449486308461649886300BF0820032164
:1041B00000230222CDE900100121124800F032FB59
:1041C0000820032100230222CDE9001011460D48EA
:1041D00000F028FB002205213420FDF70CFD3420DF
:1041E000FDF7F9FC00F010F8002000F031F81CBDDC
:1041F000004C0040DC040020403802404060024097
:104200001C0500200000024008B5012003460246BC
:10421000022100900D4800F001FC012003460246F7
:1042200004210090094800F0F9FB012003460246F2
:1042300008210090054800F0F1FB012003460246EA
:1042400010210090014800F0E9FB08BD0010024079
:1042500010B50446062C18D2DFE804F003182D42EE
:10426000576C002202213F4800F0FDFB0022042190
:104270003C4800F0F8FB002208213A4800F0F3FB2C
:1042800000221021374800F0EEFB68E001220221F5
:10429000344800F0E8FB00220421324800F0E3FB40
:1042A000002208212F4800F0DEFB002210212D48BB
:1042B00000F0D9FB53E0002202212A4800F0D3FB92
:1042C00001220421274800F0CEFB002208212548C6
:1042D00000F0C9FB00221021224800F0C4FB3EE0A0
:1042E000012202211F4800F0BEFB012204211D48CB
:1042F00000F0B9FB002208211A4800F0B4FB0022AC
:104300001021184800F0AFFB29E0002202211548D7
:1043100000F0A9FB00220421124800F0A4FB0122B6
:104320000821104800F09FFB002210210D4800F0EA
:104330009AFB14E0012202210A4800F094FB0022BB
:104340000421084800F08FFB01220821054800F0F5
:104350008AFB00221021034800F085FB00BF00BF4C
:1043600010BD00000010024010B50A4802F00CF821
:1043700009490860094A0421012001F0FFFE0849AB
:104380000860084A0021084802F098F807490860C8
:1043900010BD0000008D000868000020108D00088E
:1043A0006C000020DC8C0008C94300086400002079
:1043B00001B54FF6FF73012269460248FEF770FC13
:1043C00008BD0000DC0400203DE04FF0FF311E4836
:1043D000006801F09BFF1D480078FFF739FF0020BF
:1043E0001B4908701B49088008201B4908800846A3
:1043F00002881A491A48FEF7EFFBFF20FFF7D8FFA3
:104400001848124A127800EB82014FF4967300228A
:104410001548006801F066FE1348006801F056FF79
:104420000A480078401C022801DB002002E007480F
:104430000078401C054908700348006802F00AF83B
:10444000642001F0EFFDC0E768000020500000206C
:1044500051000020600000205C0000204800002087
:10446000DC040020540000206C00002078B50446D5
:1044700000200090084605E0255C9DF8006075402E
:104480000095401C9042F7DD9DF80000E0540120AB
:1044900078BD000078B505460E4614460020009011
:1044A000032C08D1DFED0C0A60EE200AFDEEE00AD5
:1044B000CDED000A09E0042C07D1DFED080A60EE1B
:1044C000200AFDEEE00ACDED000A0223324629461D
:1044D000009800F005F878BD000080430000804798
:1044E00078B504460020009023B960B288540125B5
:1044F00000951CE0012B08D120B28854C0F3072698
:10450000551C4E550225009511E0022B0FD1204677
:104510008854C0F30726551C4E55C0F30746951C1A
:104520004E55060ED51C4E550425009500BF9DF82E
:10453000000078BD78B505460E4614460020009070
:10454000032C08D1DFED0C0A60EE200AFCEEE00A35
:10455000CDED000A09E0042C07D1DFED080A60EE7A
:10456000200AFCEEE00ACDED000A0223324629467D
:10457000009800F005F878BD0000804300008047F7
:1045800078B504460020009023B9E0B28854012594
:1045900000951BE0012B07D1A0B28854060A551CD8
:1045A0004E550225009511E0022B0FD1204688546C
:1045B000C0F30726551C4E55C0F30746951C4E55B3
:1045C000050ED61C8D550425009500BF9DF80000F2
:1045D00078BD000078B505460E4614469FED180AD2
:1045E0008DED000A032C13D102223146284600F03B
:1045F0002DF800EE100AB8EEC00AF7EE000A20EE21
:10460000200ADFED100A80EE201A8DED001A14E06A
:10461000042C12D102223146284600F017F800EE91
:10462000100AB8EEC00AF7EE000A20EE200ADFED0D
:10463000060A80EE201A8DED001A9DED000A78BD65
:1046400000000000000080430000804718B50346CA
:104650000020009012B9585C009018E0012A06D1A1
:104660005C5C481C185C04EB002000900FE0022A00
:104670000DD15C5C481C185C04EB0024881C185CA1
:1046800004EB0044C81C185C04EB00600090009828
:1046900018BD18B503460020009012B9585C009070
:1046A00018E0012A06D15C5C481C185C04EB002071
:1046B00000900FE0022A0DD15C5C481C185C04EBF2
:1046C0000024881C185C04EB0044C81C185C04EB34
:1046D00000600090009818BDF0B504460026002543
:1046E000084602E0275C7D40401C9042FADDAB4268
:1046F00000D101263046F0BD10B500BF502080F338
:104700001188BFF34F8FBFF36F8F00BF03F05AFFC5
:1047100018B14FF080500449086000BF002080F3BA
:10472000118800BF10BD000004ED00E005480068DE
:1047300040F47000034908604FF00060014980397F
:104740000860704788ED00E000B593B0302107A8FD
:10475000FBF7E0FD142102A8FBF7DCFD00BF002001
:1047600001902E48006840F080502C4908600846AF
:10477000006800F08050019000BF00BF00BF002023
:1047800001902748006840F48040254908600846A9
:10479000006800F48040019000BF00BF092007902E
:1047A0004FF48030089001200C9002200D904105BC
:1047B0000E9104210F91A821109102211191042141
:1047C000129107A8FDF7CCFB0F2002900220039066
:1047D000002004904FF4A05005904FF480500690B4
:1047E000052102A8FDF75AFA00BF002001900B48EE
:1047F000001D006840F480400849091D0860084613
:10480000006800F48040019000BF00BF00220F212B
:10481000901EFDF7F0F913B000BD000040380240D3
:10482000007000402DE9F04385B007460D46144660
:104830001E46DDE90C8914216846FBF76BFD3846FE
:1048400000F018F8009501940296CDF80C80CDF890
:10485000109069463846FDF71DF8012C01D0112C47
:1048600004D100222946384600F0FDF805B0BDE825
:10487000F083000008B56049884214D15F49096897
:1048800001F0010100290DD100BF00915B490968C9
:1048900041F00101594A11601146096801F0010116
:1048A000009100BFA7E05649884214D153490968D6
:1048B00001F002010029F5D100BF00914F490968BC
:1048C00041F002014D4A11601146096801F00201F0
:1048D000009100BF8FE04B49884214D147490968D5
:1048E00001F004010029DDD100BF009143490968AE
:1048F00041F00401414A11601146096801F00401C8
:10490000009100BF77E04049884214D13B490968D3
:1049100001F0080100296ED100BF009137490968F4
:1049200041F00801354A11601146096801F008019B
:10493000009100BF5FE03549884214D12F490968D2
:1049400001F01001002956D100BF00912B490968E0
:1049500041F01001294A11601146096801F0100167
:10496000009100BF47E02A49884214D123490968D1
:1049700001F0200131BB00BF002100911F490968EF
:1049800041F020011D4A11601146096801F0200123
:10499000009100BF2FE01F49884214D117490968D0
:1049A00001F0400171B900BF00210091134909686D
:1049B00041F04001114A11601146096801F04001BF
:1049C000009100BF17E01449884214D10B490968CF
:1049D00001F0800179B900BF002100910749096801
:1049E00041F08001054A11601146096801F080011B
:1049F000009100BF00BF08BD0000024030380240F7
:104A00000004024000080240000C02400010024076
:104A10000014024000180240001C02402DE9F04141
:104A200086B007460D4614461E46DDF83080142138
:104A300001A8FBF76FFC3846FFF71CFF01950294B5
:104A40000396CDF8108001A93846FCF723FF012C0E
:104A500001D0112C04D100222946384600F003F879
:104A600006B0BDE8F08170B505460C461646A1B209
:104A700032462846FDF70EF870BD000010B502481A
:104A8000FDF7F8FD10BD00000001002010B5026820
:104A9000294B98420ED0B0F1804F0BD0274B984253
:104AA00008D0274B984205D0264B984202D0264B7F
:104AB000984203D122F070024B681A431E4B984271
:104AC00020D0B0F1804F1DD01C4B98421AD01C4B07
:104AD000984217D01B4B984214D01B4B984211D0D0
:104AE0001A4B98420ED01A4B98420BD0194B984251
:104AF00008D0194B984205D0184B984202D0184B59
:104B0000984203D122F44072CB681A4322F080030A
:104B10004C6943EA040202608B68C3620B688362DB
:104B2000054B984202D0084B984201D10B690363B0
:104B30000123436110BD000000000140000400405B
:104B400000080040000C004000040140004001400B
:104B5000004401400048014000180040001C004093
:104B60000020004030B501F01F05012404FA05F3D0
:104B7000046A9C430462046A01F01F0502FA05F509
:104B80002C43046230BD000030B5056A25F00105F4
:104B90000562026A4368846924F0700424F0030407
:104BA0000D682C4322F002028D682A43104DA84262
:104BB00000D103E00F4DA84206D100BF22F0080249
:104BC000CD682A4322F00402094DA84202D0094DC3
:104BD000A84207D123F4807323F400734D692B435B
:104BE0008D692B43436084614D684563026230BD2B
:104BF000000001400004014030B5056A25F01005B1
:104C00000562026A4368846924F4E04424F4407431
:104C10000D6844EA052422F020028D6842EA05125C
:104C2000124DA84200D103E0114DA84207D100BFA8
:104C300022F08002CD6842EA051222F040020B4DBC
:104C4000A84202D00A4DA84209D123F4806323F47C
:104C500000634D6943EA85038D6943EA8503436038
:104C600084614D688563026230BD00000000014030
:104C70000004014030B5056A25F480750562026ABA
:104C80004368C46924F0700424F003040D682C43C5
:104C900022F400728D6842EA0522124DA84200D12A
:104CA00003E0114DA84207D100BF22F40062CD6895
:104CB00042EA052222F480620A4DA84202D00A4D3F
:104CC000A84209D123F4805323F400534D6943EAE9
:104CD00005138D6943EA05134360C4614D68C563DC
:104CE000026230BD000001400004014030B5056A99
:104CF00025F480550562036A4468C26922F4E042E3
:104D000022F440720D6842EA052223F400538D68B4
:104D100043EA0533084DA84202D0084DA84204D109
:104D200024F480444D6944EA85144460C2614D68AE
:104D30000564036230BD0000000001400004014032
:104D400070B50546284602F0B7FA044614B1D4E916
:104D50000010884770BD000010B50348FDF758FEED
:104D6000014800F0FFF810BDDC04002070B50546D6
:104D7000AC6B0020E085E0842046FDF748FE70BD66
:104D800070B506460025B46B20684069C0F3C015B5
:104D900094F83900212805D125B10020E08420466F
:104DA00000F082F820684069C0F3801594F83A005A
:104DB000222805D125B10020E085204600F054F8D6
:104DC000E06B40F01000E0632046FDF720FE70BD70
:104DD00070B50546AC6B2868006800F48070B0B907
:104DE0000020E0852068C06820F480702168C860D9
:104DF0002068406920F0010021684861206840690E
:104E000020F0400021684861202084F83A002046C4
:104E1000FDF744FF70BD70B50446A56B2846FDF74D
:104E20003EFF70BD70B50546AC6B2868006800F4A5
:104E3000807070B90020E0842068406920F0800014
:104E4000216848612068C06840F040002168C8605F
:104E500002E02046FDF7DEFF70BD70B50446A56B8D
:104E60002846FDF7D8FF70BD0168C96821F490712C
:104E70000268D1600168496921F00101026851614D
:104E8000202180F83A10704710B504462068C068A9
:104E900020F040002168C860202084F839002046B6
:104EA000FDF7B8FF002010BD0168C96821F0C001FE
:104EB0000268D160202180F83910704770B504462F
:104EC00094F83A0022284AD1A068B0F5805F13D147
:104ED000A56A206940B920684068C0F308002880AE
:104EE000A06A801CA06219E020684068C0B22880D7
:104EF000A06A401CA06211E0206938B920684068AF
:104F0000C1B2A26A501CA062117007E0206840681C
:104F100000F07F01A26A501CA0621170E08D401E5B
:104F200080B2E085C8B92068C06820F02000216800
:104F3000C8602068C06820F480702168C86020685C
:104F4000406920F0010021684861202084F83A007F
:104F50002046FDF7A3FE002070BD0020FCE70220E4
:104F6000FAE7000038B5044628492068884216D17F
:104F7000274800680068C0F3001080B100BF00201F
:104F8000009023480068006800902148006840684D
:104F9000009000BF00BF1F48FDF73EFF34E01E49F0
:104FA0002068884216D11D4800680068C0F30010D0
:104FB00080B100BF00200090184800680068009091
:104FC000164800684068009000BF00BF1448FFF713
:104FD0001BF819E013492068884215D1124800686F
:104FE0000068C0F3001078B100BF002000900E48A8
:104FF0000068006800900C4800684068009000BF9E
:1050000000BF0A48FFF702F838BD00000044004026
:105010004001002040020020004800408805002098
:1050200088060020004C0040DC04002048000020DE
:105030002DE9F84F04462068006920F44050E168EB
:105040000843216808612169A06808436169084331
:10505000E169084300902068C06849F20C61884308
:10506000009908432168C8602068406920F44070B6
:10507000A169084321684861E069B0F5004F75D126
:10508000E3492068884203D0E249206888426FD112
:10509000FCF7FEFE814602206168A0FB01510B4631
:1050A0001920A9FB00712A463846FBF7E9F864216C
:1050B000B0FBF1F04FEA001A02206168A0FB015139
:1050C0000B461920A9FB00712A463846FBF7D8F891
:1050D000074602206168A0FB01510B461920A9FB7D
:1050E00000B12A465846FBF7CBF86421B0FBF1F03B
:1050F00000EBC00101EB0010A7EB8000322101EBB7
:10510000C0006421B0FBF1F000F0F8000AEB400AA7
:1051100002206168A0FB01510B461920A9FB007118
:105120002A463846FBF7ACF8074602206168A0FB28
:1051300001510B461920A9FB00B12A465846FBF73E
:105140009FF86421B0FBF1F000EBC00101EB00100F
:10515000A7EB8000322101EBC0006421B0FBF1F02D
:1051600000F007005044216888604FE16EE0FFE7DF
:10517000FCF77EFE814602206168A0FB01510B46D0
:105180001920A9FB00712A463846FBF779F86421FB
:10519000B0FBF1F04FEA001A02206168A0FB015158
:1051A0000B461920A9FB00712A463846FBF768F820
:1051B000074602206168A0FB01510B461920A9FB9C
:1051C00000B12A465846FBF75BF86421B0FBF1F0CA
:1051D00000EBC00101EB0010A7EB8000322101EBD6
:1051E000C0006421B0FBF1F000F0F8000AEB400AC7
:1051F00002206168A0FB01510B461920A9FB007138
:105200002A463846FBF73CF8074602206168A0FBB7
:10521000015003461920A9FB00B12A465846FBF766
:105220002FF86421B0FBF1F000EBC00101EB00109E
:10523000A7EB8000322101EBC0006421B0FBF1F04C
:1052400000F00700504421688860DFE07049206862
:10525000884203D06F49206888426BD1FCF718FE62
:10526000814604206168A0FB01510B461920A9FB6F
:1052700000712A463846FBF703F88246042061682D
:10528000A0FB01510B461920A9FB00712A463846A4
:10529000FAF7F6FF6421B0FBF1F000EBC00101EB7F
:1052A0000010AAEB8000322101EB00106421B0FB5A
:1052B000F1F000F0F00A04206168A0FB0150034601
:1052C0001920A9FB00712A463846FAF7D9FF642154
:1052D000B0FBF1F00AEB001A04206168A0FB015159
:1052E0000B461920A9FB00712A463846FAF7C8FF79
:1052F000074604206168A0FB015003461920A9FB62
:1053000000B12A465846FAF7BBFF6421B0FBF1F022
:1053100000EBC00101EB0010A7EB8000322101EB94
:1053200000106421B0FBF1F000F00F005044216840
:1053300088606BE0FCF79CFD814604206168A0FB5F
:10534000015003461920A9FB00712A463846FAF796
:1053500097FF824604206168A0FB01500346192094
:10536000A9FB00712A463846FAF78AFF6421B0FB90
:10537000F1F000EBC00101EB0010AAEB800032213C
:1053800001EB00106421B0FBF1F000F0F00A042002
:105390006168A0FB015003461920A9FB00712A4651
:1053A0003846FAF76DFF6421B0FBF1F00AEB001A02
:1053B00004206168A0FB017003461920A9FB00507E
:1053C00001463A462846FAF75BFF07460420616823
:1053D000A0FB015003461920A9FB00B12A465846FC
:1053E000FAF74EFF6421B0FBF1F000EBC00101EBD6
:1053F0000010A7EB8000322101EB00106421B0FB0C
:10540000F1F000F00F00504421688860BDE8F88F8B
:105410000010014000140140014691F83900212894
:105420002CD18868B0F5805F0FD10A6A1088C0F36C
:1054300008000B685860086918B9086A801C08627F
:1054400009E0086A401C086205E00B6A581C086203
:1054500018780B685860C88C401E80B2C88458B950
:105460000868C06820F080000B68D8600868C068D1
:1054700040F040000B68D860002070470220FCE735
:105480002DE9F04104460D4617469846069E21E058
:10549000701CF8B12EB1FCF703FBA0EB0800B04282
:1054A00018D92068C06820F4D0702168C8602068CE
:1054B000406920F0010021684861202084F839000B
:1054C00084F83A0000BF002084F8380000BF0320B1
:1054D000BDE8F081206800682840A84201D1012081
:1054E00000E00020B842D3D00020F1E710B5024818
:1054F000FDF78EFA10BD00003804002010B50348F7
:10550000FDF786FA0148FFF72DFD10BD4001002090
:1055100010B50348FDF77CFA0148FFF723FD10BDE5
:105520008805002010B50248FCF7E8FA10BD00001D
:105530007804002010B5064806490860032048603A
:105540004FF47A6103488160FCF7B0FA10BD0000A7
:10555000003000407804002003B401984100009816
:1055600050EAC12018BF04204A0D18BF40F00100C6
:1055700040F2FF72B2EB515F08BF40F00200012819
:1055800008BF052002B0704702480068C0F302203F
:10559000704700000CED00E010B5002804DB0A079E
:1055A000130E054A135406E00A07140E034A00F0CE
:1055B0000F031B1FD45410BD00E400E018ED00E001
:1055C000EFF311807047EFF305807047EFF3108021
:1055D000704700000000000010B52F499FED2C1B04
:1055E0002DED020B84B0059820F000408842D8BF12
:1055F0009DED040B2DDD2949884209D1049840B95D
:105600004FF0010000F0D4FC00F0A2FC06B010BD89
:1056100005DB9DED040B00F08FFC06B010BD684665
:105620009DED040B00F0A0F810F0030004BF9DED09
:10563000021B9DED000B0CD001280ED09DED021B2E
:105640009DED000B022817D0012000F0DDFB06B015
:1056500010BD00F0A5FA06B010BD9DED021B9DED3A
:10566000000B012000F0D0FB51EC100B81F0004149
:1056700006B041EC100B10BD00F092FA51EC100B8B
:1056800081F0004106B041EC100B10BD000000009D
:105690000000000000000000FB21E93F0000F07F57
:1056A00010B52F499FED2C1B2DED020B84B00598F2
:1056B00020F000408842DCBF00209DED040B32DD6D
:1056C0002849884209D1049840B94FF0010000F000
:1056D0006FFC00F03DFC06B010BD05DB9DED040B3A
:1056E00000F02AFC06B010BD68469DED040B00F0EA
:1056F0003BF810F0030011D0012818D09DED021BDB
:105700009DED000B02281AD000F04AFA51EC100B64
:1057100081F0004106B041EC100B10BD9DED021B65
:105720009DED000B012000F06FFB06B010BD9DED5C
:10573000021B9DED000B00F033FA06B010BD0120F6
:1057400000F062FB51EC100B81F0004106B041EC1F
:10575000100B10BD00000000000000000000000061
:10576000FB21E93F0000F07F2DE9F14F04462DEDCC
:10577000020B2DED088B8AB09FEDE70B80ED020B3D
:10578000139EE74826F0004585420ADC9DED120B8A
:10579000002084ED000B0AB0BDEC088B03B0BDE81F
:1057A000F08FE0489FEDE0AB9FEDE1BBA84247DD05
:1057B000E14F9FEDE39B9FEDE48B9DED120B53ECCE
:1057C0001A2B51EC100B002E1CDDFAF7B6FF41EC42
:1057D000100BBD4208D053EC1B2B51EC100BFAF709
:1057E000ACFFC4E900010BE053EC192B51EC100B9A
:1057F000FAF7A3FF53EC182BFAF79FFFC4E9000157
:105800000120C8E7FAF7F8FE41EC100BBD4208D0C2
:1058100053EC1B2B51EC100BFAF7EEFEC4E9000120
:105820000BE053EC192B51EC100BFAF7E5FE53EC9F
:10583000182BFAF7E1FEC4E900014FF0FF30AAE7A8
:10584000C348A84279DB9DED120B51EC100B00F020
:10585000B5FB41EC180B9FEDC00B53EC102BFAF786
:1058600064FD9FEDBF1B53EC112BFAF7C5FEFAF751
:10587000F7FF0746FAF7D6FF41EC190B53EC1A2B4A
:10588000FAF753FD53EC182BFAF75AFF41EC180BBB
:1058900053EC1B2B51EC190BFAF747FDDFF8C8A2AC
:1058A00041EC100B4FEA15580125FA4453EC102B2C
:1058B00051EC180BFAF741FF032DC4E900013DD06C
:1058C000C1F30A5005EB4511A8EB000011398142E4
:1058D00034DA0AEB051BB0EE48AA9BED000BF0EEA4
:1058E00068AA53EC102B51EC190BFAF71EFD41EC92
:1058F0001B0B51EC1A0B53EC1B2BFAF71EFF41EC60
:10590000180B51EC1A0B53EC182BFAF716FF53EC4B
:105910001B2BFAF712FF9BED020B41EC1A0B53EC19
:10592000102B51EC190BFAF700FD53EC1A2BFAF778
:1059300004FF41EC100B6D1CB8E70EE0002EA8BF71
:105940003846BFF628AF94ED000B51EC100B81F0F8
:105950000041C4E9000178421DE7C6F3130040F49A
:10596000801EC6F30A50A0F2F530471100F01F0563
:10597000C5F12000DDF848B008900020069007909F
:105980000520EC467949002D07EB0002794408BF59
:1059900051F8221009D051F8223001EB8201AB40BE
:1059A0004A68089922FA01F11943A1FB0E26A1FBCE
:1059B0000B131A449A4234BF0123002303EB060859
:1059C0000CEB8003D3E901A60E448E4234BF0121C3
:1059D000002192448A4411B1924502D903E09245D4
:1059E00001D2012100E00021C3E901A641444CF8A5
:1059F0002010011EA0F10100C4DC029800F100504B
:105A0000850F0298DDE903678000DDF81480FAF75E
:105A100009FF41EC1A0B3046FAF715FF9FED541BB6
:105A200053EC112BFAF781FC41EC1B0B3846FAF7CB
:105A30000AFF9FED511B53EC112BFAF776FC41EC5A
:105A4000180B4046FAF7FFFE9FED4D1B53EC112B50
:105A5000FAF76BFC41EC190B51EC180B53EC192BBA
:105A6000FAF7CAFD53EC1B2BFAF7C6FD53EC1A2BC1
:105A7000FAF7C2FDCDE90801002008909DED080B62
:105A800053EC1A2B51EC100BFAF757FE53EC1B2B6F
:105A9000FAF753FE53EC182BFAF74FFE53EC192B81
:105AA000FAF74EFE9FED381B53EC112BFAF73DFC35
:105AB0009FED370B41EC180B53EC102B9DED080BB1
:105AC00051EC100BFAF731FC53EC182BFAF794FD5C
:105AD0009FED310B41EC180B53EC102B9DED080B97
