:020000040800F2
:10000000605600205D0200086502000867020008D3
:10001000690200086B0200086D0200080000000081
:100020000000000000000000000000009D0100082A
:100030007102000800000000F9010008952F000877
:1000400077020008770200087702000877020008AC
:10005000770200087702000877020008770200089C
:10006000770200087702000877020008770200088C
:10007000770200087702000877020008770200087C
:100080007702000877020008C50800087702000818
:10009000770200087702000877020008770200085C
:1000A000770200087702000877020008770200084C
:1000B000770200087702000825320008770200085E
:1000C000770200087702000877020008770200082C
:1000D00077020008713700087D370008893700086B
:1000E000770200087702000877020008770200080C
:1000F00077020008770200087702000877020008FC
:1001000077020008770200087702000877020008EB
:10011000B13400087702000877020008770200086F
:1001200077020008770200087702000877020008CB
:1001300077020008770200087702000877020008BB
:1001400077020008770200087702000877020008AB
:10015000770200087702000877020008770200089B
:10016000770200087702000877020008770200088B
:1001700077020008770200087702000800000000FC
:100180007702000877020008DFF80CD000F022FAAE
:10019000004800470D420008605600202C4B1968AB
:1001A0000868B0E8F04F80F30988BFF36F8F4FF015
:1001B000000080F3118870470000000008480068C4
:1001C000006880F308884FF0000080F3148862B65E
:1001D00061B6BFF34F8FBFF36F8F00DF00BF00BF6B
:1001E00008ED00E0DFF80C00016841F470010160E7
:1001F000704700BF88ED00E0EFF30980BFF36F8F19
:10020000134B1A681EF0100F08BF20ED108A20E96A
:10021000F04F106009B44FF0500080F31188BFF325
:100220004F8FBFF36F8F05F06BF94FF0000080F335
:10023000118809BC19680868B0E8F04F1EF0100F6B
:1002400008BFB0EC108A80F30988BFF36F8F704746
:1002500064000020EFF305807047000006488047E7
:1002600006480047FEE7FEE7FEE7FEE7FEE7FEE79B
:10027000FEE7FEE7FEE7FEE7C12F00088901000860
:100280002DE9F05F0546002092469B4688460646CB
:10029000814640241BE0284641464746224600F05E
:1002A000F4F853465A46C01A914110D311461846E5
:1002B000224600F0DBF82D1A67EB01084F46224674
:1002C0000120002100F0D2F817EB00094E41201E5A
:1002D000A4F10104DFDC484631462A464346BDE826
:1002E000F09F40EA01039B0703D009E008C9121FF1
:1002F00008C0042AFAD203E011F8013B00F8013BE0
:10030000521EF9D27047D2B201E000F8012B491E0B
:10031000FBD270470022F6E710B513460A460446A2
:100320001946FFF7F0FF204610BD2DE9FE4F81EA88
:10033000030404F0004421F0004100944FF0000B4E
:1003400023F0004350EA01045ED052EA03045BD07C
:10035000C3F30A54C1F30A552C44A4F2F3340194B4
:10036000A0FB0254C1F3130141F48011C3F3130342
:1003700043F4801301FB024400FB034E840A970AF6
:1003800044EA815447EA8357A4FB076802958D0A23
:1003900005FB07854FEA932C04FB0C542705029DAF
:1003A0004FEA065847EA1637B5EB08056EEB070C1F
:1003B000870E920E47EA811742EA8312A7FB0201D9
:1003C000B6EB0B0164EB00042B0D43EA0C335E1813
:1003D00044EB1C50DA465146E7FB0201C5F3130417
:1003E0004FEA0B3343EA14534FEA0432019C43EAC9
:1003F0000603A4F10C040294009CCDE900B400F0C3
:100400009AF803B0BDE8F08F00200146F9E700F04C
:10041000004230F000400AD0C10D01F56071C0F318
:10042000160042EA0151C2084007114370470020FC
:100430000146704701F0004330B421F0004150EA1A
:10044000010206D00A0DA2F56072C1F31301002A61
:1004500002DC30BC00207047440F44EAC104C100F4
:10046000E01830BC00EBC25000F01FB8202A04DBBB
:10047000203A00FA02F1002070479140C2F12003B7
:1004800020FA03F3194390407047202A04DB203AF6
:1004900021FA02F00021704721FA02F3D040C2F1A4
:1004A000200291400843194670470029A8BF7047B1
:1004B000401C490008BF20F00100704710B4B0FA9A
:1004C00080FC00FA0CF050EA010404BF10BC704735
:1004D00049B1CCF1200421FA04F411FA0CF118BF4F
:1004E000012121430843A3EB0C01CB1D4FEA00611E
:1004F0004FEA102042BF002010BC704700EBC350F1
:1005000010440029A4BF10BC7047401C490008BF1C
:1005100020F0010010BC704710B5141E73F10004E8
:1005200008DA401C41F1000192185B411A4301D1E5
:1005300020F0010010BD2DE9F04D92469B4611B10F
:10054000B1FA81F202E0B0FA80F220329046FFF771
:100550008DFF04460F4640EA0A0041EA0B0153466C
:100560005A46084313D0114653EA010019D0C8F186
:1005700040025046FFF789FF05460E465046594651
:100580004246FFF773FF084305D0012004E02046F0
:100590003946BDE8F08D0020054346EAE0762C435D
:1005A00037430A986305E40AA0EB08000022FD0A1D
:1005B00044EA47540A3002D500200146E9E7010524
:1005C00010196941DDE9084500196941BDE8F04DA0
:1005D000A2E70000064C074D06E0E06840F001038A
:1005E00094E8070098471034AC42F6D3FFF7D0FDEB
:1005F000A0660008C06600082DE9FE4F804681EA2B
:100600000300C00F0C46009021F0004123F000458C
:10061000B8EB0200A94105D24046214690461C464F
:100620000B46024623F00040104347D0270DC7F386
:100630000A00C3F30A510290401A019040286BDA75
:10064000C3F3130040F4801B0098924620B10023AE
:10065000D2EB030A63EB0B0B01985946C0F1400241
:100660005046FFF703FF06460D4650465946019A8D
:1006700000F015F910EB08006141002487EA1152DF
:1006800084EAE7731A4340D0009A62B3019A012AC0
:100690004FEA075215DC001B61EB02014FF00042EC
:1006A00002EA0752CDE90042001C41F580113246B2
:1006B0002B46FFF740FF03B0BDE8F08F40462146D0
:1006C000F9E7001B61EB0201001C41F580130018E3
:1006D0005B412018A2F5001747EB030140EAD570F3
:1006E000B6196D4111E06D084FEA360645EAC0754E
:1006F0004FEA0752001B61EB0201001C41F580111B
:1007000049084FEA30000019514132462B4603B0E8
:10071000BDE8F04FFFF700BF009801224000002322
:10072000D0EB020263EBE073009821464FEAE074DD
:10073000B8EB000061EB0401E9E783F000435BE7FD
:1007400081F0004158E72DE9F04D81EA030404F0FF
:10075000004B21F0004514464FF0000A23F0004101
:1007600050EA050220D054EA01021DD0C5F30A5711
:100770000246C5F31303C1F31300C1F30A5640F454
:10078000801543F48013A7EB0608101BD64608F229
:10079000FD3873EB050002D308F1010801E092185F
:1007A0005B41B8F1000F03DA00200146BDE8F08D8F
:1007B00000204FF48011064684460EE0171B73EBB1
:1007C000050705D3121B63EB050306434CEA010C36
:1007D00049084FEA300092185B4150EA0107EDD119
:1007E00052EA030012D082EA040083EA05010843BA
:1007F00005D0101BAB4106D20122002306E00022E7
:100800004FF0004302E06FF0010253101AEB0600B4
:100810004CEB085110EB0A0041EB0B01BDE8F04D29
:10082000FFF77ABE0EB5C10F80EAE0700844CA0730
:10083000002140F233438DE80E000A460B46FFF7D5
:100840007AFE03B000BD0EB540F2334102910021A3
:10085000CDE900110A460B46FFF76DFE03B000BD5F
:1008600070B5C1F30A5201F000450024C1F3130131
:1008700040F2FF3341F480119A4201DA002070BD4A
:1008800040F233439A42A2F2334203DC5242FFF772
:10089000FCFD00E090402C43F1D0404270BD202A86
:1008A00006DBCB17203A41FA02F043EAE07306E098
:1008B00041FA02F3D040C2F12002914008431946A8
:1008C00070470000014800F072BA0000A402002046
:1008D000464910B54A6822F440324A604A68436883
:1008E0001A434A6001684A6822F480724A600168CB
:1008F0004A68036942EA03224A6001684A6822F0B2
:1009000040724A6001684A6883681A434A60016815
:100910008A6822F400628A6001688A68C3681A43A0
:100920008A60816A6FF07062D14201688A6822F041
:1009300070628A6001688A680CD0836A1A438A6090
:1009400001688A6822F040528A6001688A68C36A36
:100950001A4301E022F040528A6001688A6822F05E
:1009600002028A6001688A68037E42EA43028A6062
:1009700090F82010002901684A680FD042F4006204
:100980004A6001684A6822F460424A6001684A6825
:10099000174C436A04EB43331A4301E022F400622C
:1009A0004A600168CA6A22F47002CA620168CA6AAF
:1009B000838B104C04EB03531A43CA6201688A68A4
:1009C00022F400728A6001688A6890F8303042EA46
:1009D00043228A6001688A6822F480628A60016822
:1009E0008A68406942EA8020886010BD0023014087
:1009F00000E0FFFF0000F0FF10B586B000212048A6
:100A00000191029103911D4A049102604FF48032DA
:100A1000C0E901210161017680F82010194AC0E97E
:100A20000A210124C461C16080F830104461164875
:100A3000016841F480710160006800F480700090EA
:100A40000F4800F052FA0820CDE9010401A90C4832
:100A5000039400F0FFF802200090002303220121FC
:100A60000A4802F0B9FB00220521122000F0BCFC6C
:100A7000122000F0ACFC06B010BD000000200140C8
:100A8000A40200200100000F44380240000402408C
:100A900010B5FFF7B1FFBDE8104000F029B8000025
:100AA00010B5064803F03AFD054C044A0021606089
:100AB000243A044803F0A0FD206010BD2064000823
:100AC0002C000020C90A0008084C4FF0FF3541F205
:100AD00088362946606803F0EBFC00F009F860688E
:100AE00003F05CFD304603F0B7FBF2E72C0000207A
:100AF00010B51F4800F076FA14211D4800F021FAC5
:100B00001B4800F04FF9800530D5194800F04CF92A
:100B100000EE100ADFED170A9FED191AB8EEC00AB1
:100B20001349483120EE200ADFED130A886020EED9
:100B3000200ADFED120A20EE200ADFED120A81ED15
:100B4000010A50EE010ABDEEE00A10EE100AC8607C
:100B5000642801DD642002E0002800DA0020C8607B
:100B60000F2801DC012000E00020087010BD00000B
:100B7000A40200203333534000008039CDCCCC4058
:100B80000000C84200C08A4408B50020012300903C
:100B90001A461021014802F01FFB08BD0004024064
:100BA00010B50A4803F0BAFC094C084A0421A060B9
:100BB0001032012003F0E2FB044AE060243A0021F5
:100BC000044803F019FD606010BD0000D463000804
:100BD0001C000020010C000831B5084C0021A06861
:100BE00003F066FC002808D100231A466946E06835
:100BF00003F0FEFBA06803F0D1FC38BD1C00002010
:100C0000114C124E4FF0FF352B4600220E49E06882
:100C100003F074FB0028F7D12946A06803F048FCD4
:100C200001221021304602F0FAFA206803F014FB8A
:100C300000221021304602F0F2FAE06803F01AFCBC
:100C4000A06803F0ABFCDFE71C00002000040240BA
:100C50007047000078B50024009490F83C20012AE9
:100C600019D0012280F83C200A6807230568092A68
:100C700013D9EE680A3A02EB420293409E43EE60BB
:100C80000B788A680A3B03EB43039A400368DD68EC
:100C90002A43DA6010E0022078BD2E6902EB42029E
:100CA00093409E432E610B788A6803EB43039A407E
:100CB00003681D692A431A614A681F23072A13D251
:100CC00005686E6B521E02EB820293409E436E6378
:100CD0000B790A885B1E92B203EB83039A40036888
:100CE0005D6B2A435A6327E005680D2A12D22E6BEA
:100CF000D21F02EB820293409E432E630B790A8837
:100D0000DB1F92B203EB83039A4003681D6B2A43F7
:100D10001A6311E0EE6A0D3A02EB820293409E43A1
:100D2000EE620B790A880D3B92B203EB83039A4083
:100D30000368DD6A2A43DA62164B0568144A9D424D
:100D400006D10D68122D03D1556845F48005556014
:100D500005689D4218D10B68102B01D0112B13D1BF
:100D6000536843F400035360096810290CD10A4901
:100D70000A4A0968B1FBF2F101EB8101490000E088
:100D8000491E00910029FBD180F83C40002078BD2D
:100D900000230140002001406000002040420F007D
:100DA00070477047006C70470068C06C704770B542
:100DB0000446006801684268C1F34001C2F3401272
:100DC00051B34AB3216CC90603D4216C41F40071BC
:100DD0002164816811F0405F17D1217EA9B9C16AF1
:100DE00011F4700F02D0816849050ED4416821F0DA
:100DF00020014160206C20F480702064206CC004CD
:100E000003D4206C40F0010020642046FFF7C8FFA7
:100E100021686FF012000860206801684268C1F321
:100E20008001C2F3C01289B382B3216CC90603D416
:100E3000216C41F400512164816811F4401F1ED1DE
:100E4000816B11F4401F02D08168490517D44168B5
:100E5000490514D4816811F0405F10D1217E71B929
:100E6000416821F080014160206C20F480502064B2
:100E7000206CC00503D4206C40F0010020642046A3
:100E8000FFF7E6FE21686FF00C000860206801683B
:100E9000426811F0010FC2F380120ED06AB10068EF
:100EA000C0070AD0206C40F480302064204600F057
:100EB00046F821686FF00100086020680168426808
:100EC000C1F34011C2F3806200290DD0002A0BD07B
:100ED000616C41F0020161646FF0200505602046FD
:100EE000FFF75FFF2068056070BD70B504004FF02C
:100EF000000503D0206C002610B107E0012070BD72
:100F0000204600F01DF8666484F83C60206CC00642
:100F100010D4206C20F4885040F002002064204659
:100F2000FFF7D6FC6664206C20F0020040F0010060
:100F3000206400E0012584F83C60284670BD7047BD
:100F400070472DE9F041044600680D4681684FF076
:100F5000000749050BD58068C00508D5206C40F016
:100F60002000206484F83C700120BDE8F08100F08E
:100F7000A3F906460FE0681C0DD025B100F09CF9DE
:100F8000801BA84207D9206C40F00400206484F83C
:100F90003C700320E9E7206800688007EBD52168F2
:100FA0006FF012000860206C40F40070206420682C
:100FB000816811F0405F13D1217E89B9C16A11F4B3
:100FC000700F02D0806840050AD4206C20F4807035
:100FD0002064206CC00403D4206C40F00100206425
:100FE0000020C2E718B50021009190F83C20012AAA
:100FF00007D0012280F83C2002689368DB0702D00A
:1010000011E0022018BD936843F0010393602A4A5F
:101010002A4B1268B2FBF3F202EB420200E0521ECE
:101020000092002AFBD102689368DB0741D0036C71
:1010300040F20164A34343F48073036453685B0587
:1010400005D5036C23F4005343F480530364036C0D
:10105000DB0404D5436C23F00603436400E04164E1
:1010600080F83C1016496FF022031360496800684D
:10107000CA06144906D088421BD1816811F0405F2E
:1010800013D016E08842F8D00F4A904203D1D1F82D
:101090000423D206F1D00D4A90420AD1D1F80413AC
:1010A00001F01F011029E8D303E0816841F080417D
:1010B0008160002018BD00006000002040420F0049
:1010C0000023014000200140002101400022014096
:1010D00090F83510022903D0802141650120704726
:1010E000052180F835100068016821F001010160D8
:1010F000002070472DE9F84F00224FF0010803252A
:101100004FF00F0E0B6808FA02F42340A3426ED191
:101110004E68012E05D0022E03D0112E01D0122EC2
:1011200012D186684FEA420C05FA0CF7BE43CF682D
:1011300007FA0CF7374387604668A6430C79C4F377
:101140000014944034434460C668570005FA07FC15
:101150008C6826EA0C06BC403443C4604C68022C00
:1011600001D0122C13D1D40800EB8404A346D4F888
:10117000209054074FEAD46A0EFA0AF629EA0609C3
:101180000E6906FA0AF646EA0906CBF820600668F8
:101190000C7926EA0C0604F00304BC4034430460D6
:1011A0004C68E40065D5364C266846F480462660D7
:1011B000246822F0030604F480440094314C344443
:1011C000A446D4F808489607370F0EFA07F6B4433A
:1011D0002D4EB04201D1002624E02C4EB04201D168
:1011E00001261FE02A4EB04202D102261AE040E05A
:1011F000284EB04201D1032614E0274EB04201D15F
:1012000004260FE0254EB04201D105260AE0244E07
:10121000B04201D1062605E0224EB04201D1072698
:1012200000E00826BE402643CCF808681E4E34680D
:101230004F689C43FF0300D51C4334601A4C241DA7
:1012400026684F689E43BF0300D51E432660164E96
:10125000083634684F689C43FF0200D51C43346055
:10126000114E0C3634684F689C43BF0200D51C43B6
:101270003460521C102AFFF445AFBDE8F88F00001F
:1012800044380240003001400000024000040240A7
:1012900000080240000C024000100240001402400E
:1012A00000180240001C0240003C01400AB181616C
:1012B00070470904FBE700000148806870470000A0
:1012C0005400002070B5040011D021684CF6CC40C9
:1012D0000860216845F255500860D4E9000141607A
:1012E0002168A0688860FFF7E7FF054609E0012054
:1012F00070BD00BFFFF7E0FF401B302801D903207D
:1013000070BD2068C0680028F4D121684AF6AA2080
:101310000860002070BD00684AF6AA210160002024
:10132000704700000B4810B5016841F4007101607E
:10133000016841F480610160016841F480710160DD
:10134000032000F071F8002000F006F800F03EF8ED
:10135000002010BD003C024010B5014688B00022BC
:101360001E2000F041F81E2000F031F81348002440
:10137000016841F004010160006805A900F0040063
:101380000690684600F0FCF800F01AF90C4940009D
:10139000B0FBF1F10C480B4A491E026040F2E73203
:1013A000C0E90324C0E9011400F07CFB10B1012066
:1013B00008B010BD044800F091FBF9E74038024046
:1013C00040420F0000080040E00000207047002865
:1013D00009DB00F01F02012191404009800000F16B
:1013E000E020C0F800117047F0B40E4B1B680C46AB
:1013F000C3F30223C3F10705042D00D90425191DE9
:10140000072901D2002300E0DB1E012606FA05F1C0
:10141000491E214099409E40761E16403143F0BC43
:1014200002F0E4B90CED00E0064900F0070208689C
:101430004FF6FF03184040EA0220034A10430860B9
:10144000704700000CED00E00000FA052DE9F047C0
:101450000E46050065D0DFF81481D8F80000F7B219
:1014600000F00F00B04207D288F80070D8F80000F2
:1014700000F00F00B04254D128683D4C810712D5CE
:10148000400703D5206840F4E0502060287800072A
:1014900003D5206840F4604020602068A96820F0EF
:1014A000F000084320602878C0072DD030496868D4
:1014B0000839012812D0022813D0032811D0096856
:1014C000890700292DDA216821F0030101432160F9
:1014D000FFF7F2FE814641F2883A0EE0096889037F
:1014E000EFE709688901ECE7FFF7E6FEA0EB0901E9
:1014F000514502D90320BDE8F0872068696800F0F3
:101500000C00B0EB810FEFD1D8F80010404601F08D
:101510000F01B14207D90770006800F00F00B04218
:1015200001D00120E7E72878400705D52068E96861
:1015300020F4E050084320602878000706D5206892
:10154000296920F4604040EAC100206000F058F8AA
:101550002168084AC1F30311515CC840064908607C
:1015600006480068FFF7F8FE0020C4E7003C024090
:10157000083802407C640008600000205800002009
:101580000F2202600C4A136803F0030343601368E0
:1015900003F0F0038360136803F4E053C360126840
:1015A0004FF4E05303EAD20202610448006800F0FD
:1015B0000F0008607047000008380240003C0240FD
:1015C0000448054900680968044AC1F38221515C56
:1015D000C840704760000020083802408C64000852
:1015E0000448054900680968044AC1F34231515C66
:1015F000C840704760000020083802408C64000832
:10160000154810B5006810F00C02144813D04110B2
:10161000042A0FD0082A0ED10F4C241F22682368F9
:1016200002F03F025B0207D52068C0F38810A0FBE0
:10163000010106E0084610BD2168C1F38811A1FB35
:1016400000010023FEF71CFE2168C1F30141491C83
:101650004900B0FBF1F010BD083802400024F4004E
:101660002DE9F84F04006ED02078DFF83C93C007D6
:10167000A9F104054AD009F104000168C1F3810110
:10168000012908D00068C0F3810002280AD1D9F8E6
:101690000000400206D52868800337D5606800281E
:1016A000E1D033E06068B0F5803F10D0B0F5A02FF6
:1016B000286810D020F480302860286820F480202A
:1016C00028606068A8B1FFF7F7FD06460DE02868BE
:1016D00040F48030F4E740F480202860F7E700BF52
:1016E000FFF7EAFD801B642873D828688003F7D5CC
:1016F0000CE0FFF7E1FD064605E000BFFFF7DCFD6B
:10170000801B6428F0D828688003F7D42078DFF89D
:101710009C8280074FF0000A3ED5A348001D016857
:1017200011F00C0F08D00068C0F3810002280BD123
:10173000D9F80000400207D42868800716D5E06871
:10174000012800D112E02BE1E068B8B10120C8F80F
:101750000000FFF7B1FD064605E000BFFFF7ACFD56
:10176000801B0228C0D828688007F7D5286821691F
:1017700020F0F80040EAC10028600DE0C8F800A0A1
:10178000FFF79AFD064604E0FFF796FD801B02284E
:101790001FD828688007F7D42078000722D5824E0A
:1017A00083486169703671B101210160FFF784FDE2
:1017B000074604E0FFF780FDC01B022809D8306807
:1017C0008007F7D50EE0C0F800A0FFF775FD0746CB
:1017D00005E082E0FFF770FDC01B02287DD830686D
:1017E0008007F7D42078400768D5DFF8BCB1002720
:1017F0000BF13C0BDBF80000C0000BD4DBF8001051
:1018000041F08051CBF80010DBF80000012700F018
:1018100080500090674E3068C00510D4306840F4A6
:1018200080703060FFF748FD009005E0FFF744FD51
:101830000099401A022850D83068C005F6D55A4E93
:10184000A0686C3601280FD00528306810D020F031
:1018500001003060306820F004003060A068B8B14A
:10186000FFF72AFD00900FE0306840F00100F4E738
:1018700040F004003060F7E7FFF71EFD0099411AC1
:1018800041F28830814266D830688007F4D50EE096
:10189000FFF712FD009007E0FFF70EFD0099411AD7
:1018A00041F28830814256D830688007F4D42FB195
:1018B000DBF8001021F08051CBF80010A069C8B30C
:1018C0003949091D0968C1F3810102294AD002285A
:1018D000504607D0C8F8600000E03CE0FFF7ECFCA1
:1018E00004463BE04746C8F86000FFF7E5FC0646C3
:1018F00005E000BFFFF7E0FC801B02282BD828681A
:101900008001F7D4D4E907010843A16A2A4A4908AB
:1019100002EB0141626A41EA8211084394F82C10FB
:1019200040EA0161C9F8001001203866FFF7C4FCE5
:10193000044606E036E000BFFFF7BEFC001B0228AD
:1019400009D828688001F7D52CE000BFFFF7B4FC68
:10195000001B022802D90320BDE8F88F2868800107
:10196000F4D41FE00128F7D0D9F80000E26900F4B0
:101970008001914214D1226A00F03F0191420FD1BF
:1019800047F6C071626A0140914209D1A26A00F42F
:101990004031914204D1E16A00F07060884201D088
:1019A0000120D9E70020D7E7043802400000474271
:1019B000800E4742007000400000FFFF70477047F4
:1019C00010B590F83C20012A22D0012280F83C205A
:1019D000CA688C6822F4407222434C6822F4806208
:1019E00022430C6822F4006222430C6922F48052E4
:1019F00022434C6922F400522243C969002322F495
:101A000080420A4301684A6480F83C30002010BDDF
:101A1000022010BD70B590F83C20012A32D001247C
:101A200080F83C40022280F83D2003685A689D6897
:101A300022F070060A6832435A60134B02689A42D9
:101A400014D0B2F1804F11D0104B9A420ED0104BEF
:101A50009A420BD00F4B9A4208D00F4B9A4205D0B6
:101A60000E4B9A4202D00E4B9A4204D1496825F09F
:101A700080031943916080F83D40002180F83C10BC
:101A8000084670BD022070BD000001400004004007
:101A900000080040000C00400004014000400140EC
:101AA0000018004010B5040003D094F83D0010B1B8
:101AB00007E0012010BD002084F83C00204600F023
:101AC0000CF8022084F83D00211D206801F0B0FBD5
:101AD000012084F83D00002010BD70470168CA68ED
:101AE00042F00102CA600068816801F0070106291E
:101AF00003D0016841F001010160002070472DE929
:101B0000F0410D46040003D094F83D0018B108E000
:101B10000120BDE8F081002084F83C00204600F060
:101B20003AF8022084F83D002068816844F20702F8
:101B300091438160211D206801F07AFB2268906842
:101B40009169166A2B68AF69034340F20330814301
:101B500041EA0721A868EF6908434FF6FC41884332
:101B6000E96840EA0720014328692F6A000140EA3A
:101B70000730084369686D6926F0AA0646EA05152C
:101B8000294393602268906120680162012084F8F3
:101B90003D000020BDE7704710B50446006891B1D4
:101BA000042904D00122002101F0A6FB20680122B3
:101BB0005FF0040101F0A0FB2068016841F0010121
:101BC0000160002010BD01220021F3E7704770B5CD
:101BD0000446006801694FF00005C943890715D420
:101BE000C168C943890711D4E91E0161012020772A
:101BF000206880698007204602D0FFF7E7FF04E0F5
:101C000000F098F8204600F01AF92577206801695D
:101C1000C943490717D4C168C943490713D46FF0B2
:101C200004010161022020772068806910F4407F60
:101C3000204602D0FFF7CAFF04E000F07BF8204600
:101C400000F0FDF8257720680169C943090716D41B
:101C5000C168C943090712D46FF00801016104206B
:101C600020772068C0698007204602D0FFF7AEFFCA
:101C700004E000F05FF8204600F0E1F825772068E6
:101C80000169C943C90617D4C168C943C90613D439
:101C90006FF010010161082020772068C06910F4FE
:101CA000407F204602D0FFF791FF04E000F042F8A9
:101CB000204600F0C4F8257720680169C943C907A8
:101CC00008D1C168C943C90704D1891E01612046F2
:101CD00000F0D8F820680169C943090609D4C16831
:101CE000C943090605D46FF0800101612046FFF762
:101CF00065FE20680169C943490609D4C168C94322
:101D0000490605D46FF040010161204600F0BBF8A0
:101D100020680169C94389060BD4C168C943890693
:101D200007D46FF0200101612046BDE87040FFF745
:101D300046BE70BD704770B5044690F83C000D4635
:101D400001280DD0012684F83C60022084F83D0073
:101D500042B1042A18D0082A2AD00C2A4DD139E0E1
:101D6000022070BD206801F0D5FA2068816941F039
:101D7000080181612068816921F004018161206886
:101D800081692A69114311E0206801F0F3FA2068A3
:101D9000816941F4006181612068816921F4806179
:101DA0008161206881692A6941EA0221816124E018
:101DB000206801F015FB2068C16941F00801C1618C
:101DC0002068C16921F00401C1612068C1692A69E4
:101DD000114311E0206801F037FB2068C16941F42C
:101DE0000061C1612068C16921F48061C16120681E
:101DF000C1692A6941EA0221C16184F83D6000207D
:101E000084F83C0070BD10B5040003D094F83D0088
:101E100010B107E0012010BD002084F83C002046EE
:101E200000F00CF8022084F83D00211D206801F02C
:101E3000FFF9012084F83D00002010BD7047704775
:101E400010B504460068012201F056FA0B492068DB
:101E5000884202D00A49884203D1416C41F40041D2
:101E600041642068816801F00701062903D00168F8
:101E700041F001010160002010BD000000000140A0
:101E800000040140704770477047000070B5026859
:101E900004461068D168536910F00F0F52D003F058
:101EA000010501F490762E435FD0C20705D0CA0524
:101EB00003D5E26B42F00102E263420705D5DA077F
:101EC00003D0E26B42F00202E263820705D5DA0733
:101ED00003D0E26B42F00402E263020707D501F08F
:101EE00020022A4303D0E26B42F00802E263E26B75
:101EF000002A33D0800604D5880602D5204601F09A
:101F0000F3FA20684069E16BC0F38010090700D440
:101F100028B3204601F0DAFA2068416949061AD54B
:101F2000416921F040014161606BA0B11B4901652D
:101F3000606BFFF7CDF8002810D0606B016DBDE835
:101F400070400847830610D58B060ED52046BDE8A5
:101F5000704001F0C9BA2046FFF796FF70BD2046D9
:101F6000FFF792FF0020E06370BD030606D50B0665
:101F700004D52046BDE8704001F096BB4006F3D57D
:101F80004806F1D5D168204621F04001D1602021DA
:101F900084F8391000F0D3F870BD0000BD3400089B
:101FA00070B5040004D094F83900002510B106E0A3
:101FB000012070BD84F83850204600F022F824201B
:101FC00084F839002068C16821F40051C1602046BE
:101FD00001F0D6FA2068016921F49041016120687E
:101FE000416921F02A0141612068C16841F4005132
:101FF000C160E563202084F8390084F83A000020AD
:1020000070BD704790F83A30202B22D1F9B1F2B16F
:1020100090F83830012B1CD081628285C285002166
:10202000C163222280F83A2080F838100168CA681B
:1020300042F48072CA6001684A6942F001024A6152
:102040000068C16841F02001C16000207047012094
:10205000704702207047000000680649884202D19C
:10206000054800F067BE0549884202D1044800F0E7
:1020700063BE70470048004048030020004C004009
:10208000440000202DE9F843044690F839001F462B
:1020900016460D46202850D1B5B1AEB194F838009F
:1020A00001284AD0012084F838004FF00008C4F815
:1020B0003C80212084F83900FFF7FEF8A684814691
:1020C000E68484F8388026E00120BDE8F883E08CBF
:1020D000401EE084A0684B46B0F5805F4FF00002E0
:1020E0004FF080012046009703D001F00EFBE8B9C5
:1020F0000DE001F00AFBC8B928882168C0F3080088
:102100004860206908B16D1C05E0AD1C03E0216842
:1021100015F8010B4860E08C0028D8D14B4600220E
:1021200040212046009701F0F0FA08B10320CCE7E7
:10213000202084F839000020C7E70220C5E7704757
:102140007CB51C481A4901604FF4E131416000211F
:1021500081600C22C160C0E904128161C16116482E
:10216000016841F400310160006800F40030009023
:102170001048FFF715FF07240325104ECDE9005442
:10218000002302220421304600F07CFFCDE90054F8
:10219000002302220821304600F074FF00220521AE
:1021A0002620FFF721F9BDE87C402620FFF70FB974
:1021B000004400402001002040380240000002405E
:1021C0002DE9F843041E4FF001054FF000074FF0D2
:1021D0000A0609D003DA012118A000F033F8200024
:1021E00000D5604204460BE0012115A000F02AF85A
:1021F00008E000BF90FBF6F005EB85014D007F1C69
:102200000028F7D195FBF6F54FF0000811E000BF6C
:1022100094FBF5F030308DF8000094FBF5F005FBF1
:10222000104495FBF6F50121684600F00BF808F123
:102230000108B845ECDBBDE8F88300002D00000084
:10224000300000000A4601464FF6FF730148FFF7D1
:1022500019BF000020010020DFED121A10B580EE3A
:10226000A11A012070EE410A30EE011A9FED0E0A0C
:1022700060EE801ADFED0D0A21EE000A81EEA02A41
:1022800080EE201AFDEEC21A11EE901ABDEEC10AC0
:1022900010EE104A00F0ECF92146BDE81040002095
:1022A00000F0E6B952383E430040CE4519344C4365
:1022B00070B5364D4FF0FF312DED068B286802F0DA
:1022C000F7F83348B0EE001ADFED331A90ED0C0A40
:1022D000F8EEC00A9FED2F0A60EE800A60EE810AD8
:1022E00020EEA12ADFED2D0A82EE209A90ED052A3C
:1022F000B8EEC22A22EE000A20EE010A20EE210AE0
:1023000080EE208ADFED260A38EE490AC0EE208AE8
:1023100018EE900AFEF77BF841EC100B01F078FA0A
:10232000F0EE60AA78EE090AB0EE40AAB6EE000A16
:1023300020EE808A18EE100AFEF769F853EC1A2B8B
:10234000FDF7F3FFFEF776F8164C206018EE900AC2
:10235000FEF75DF841EC100B01F0BEFAB0EE409ACA
:10236000F0EE609A18EE100AFEF751F853EC192BB4
:10237000FDF7DBFFFEF75EF86060C4ED028A2868B7
:10238000BDEC068BBDE8704002F008B904000020E7
:1023900020020020DA0F4940000002420040CE45F2
:1023A0005238BE433C030020002118B103480068A6
:1023B0004162704701484038F9E70000E001002021
:1023C0002DE9F0418EB0242102A8FDF7A3FF0024DF
:1023D00035480B944FF080410C94C0E900144FF63F
:1023E000FF78C0E902480461032684610127CDE932
:1023F0000264CDE904740694CDE907472B4D099496
:102400000A94286840F001002860286802A900F0BA
:10241000010000902448FFF772FB0B940BA922489F
:102420000C94FFF7F7FA204821494030C0E9001426
:10243000C0E9024804618461286840F00200286015
:10244000286802A900F00200009017484030FFF70A
:1024500056FB15480BA94030FFF7DCFA154D022258
:10246000012391032846CDE9006700F00BFE01230C
:10247000022208211048CDE9006700F003FE022483
:10248000CDE90064012322464021284600F0FAFDF0
:10249000CDE90064012302228021284600F0F2FDEC
:1024A0000EB0BDE8F0810000A001002040380240DD
:1024B00000040040000002400004024038B500F073
:1024C0007FF9FFF77DFF00212148FFF7B9FC0C21C0
:1024D0001F48FFF7B5FC1E483C214030FFF75CFB6E
:1024E0001B483C218030FFF757FB0124194D234640
:1024F000224640212846009400F06EFE01231A4631
:1025000080212846009400F067FE01231A46190234
:102510002846009400F060FE01231A46590228461E
:10252000009400F059FE0022094B104613F1C0033D
:10253000C2EBC20403EB8401521C0861486043F8FB
:102540002400C860486188618860022AF0DB38BDD9
:10255000600100200004024028B105480068406A7C
:10256000404200B27047024840380068406AF8E7CD
:10257000E001002010B5094801F0D0FF084C074BDE
:1025800000226060103B1146064802F087F8206088
:10259000BDE810401E2102F0C3B8000030630008FF
:1025A00000000020A1260008F0B50746002642F2F0
:1025B000080087B00C46814201DD044608E0294846
:1025C000844201DA044601E0002C01DA644201266B
:1025D0001C216846FDF79EFE6020CDE90004002026
:1025E000214D029004905FB1012F39D1A9154F0000
:1025F00014B31EB30022284600F011FE012222E08F
:102600003CB146B101224021284600F008FE0022DC
:1026100007E00022F7E700224021284600F0FFFDF6
:1026200001228021284600F0FAFD002269460F4869
:10263000FFF781FB002110E0002200E00122284684
:1026400000F0EDFD00223946284600F0E8FD0C229E
:1026500069460648FFF76FFB0C210448FFF7F0FBC3
:1026600007B0F0BDF8DFFFFF00040240600100206A
:1026700070B5094E0C4605464FF0FF31706801F009
:1026800017FF0649C5EBC50001EB80008460706848
:10269000BDE8704001F082BF000000202002002051
:1026A0002DE9F0413F4F4FF0FF312DED068B78685B
:1026B00001F0FEFE9FED3C8A9FED3C9ADFED3C9AD7
:1026C0009FED3CAADFED3CAA42F208053B4E0024F8
:1026D000F3EE0E8AC5F10008E0B2FFF73DFF00EE11
:1026E000100AC4EBC40306EB8302B8EEC00A20EE66
:1026F000080AC0EE280ABDEEE00A10EE100A46F8FD
:10270000230000EE100AE0B2B8EEC00A20EE090A7B
:10271000C0EE290ABDEEE00A82ED010AFFF71CFFB8
:10272000D168002800DA40420844D060E0B2FFF7E8
:1027300013FF516908445061E0B2FFF735FE56F8C7
:10274000231090681369401A9169411A00EE101A1B
:10275000B8EEC00A60EE0A0A00EE100AB8EEC00A2F
:1027600040EE2A0ABDEEE00A10EE101A194411617B
:102770009061A94201DD294602E0414500DA414667
:10278000E0B21161FFF710FF641C022CA4DB786833
:1027900001F004FF38681E21BDEC068BBDE8F04156
:1027A00001F0BEBF0000002000007A44000070422B
:1027B0000040CE45CDCC4C3ECDCCCC3D20020020BF
:1027C00070B594B0002411941C2102A81294FDF756
:1027D000A1FD202109A8FDF79DFD294827490125D4
:1027E000C0E9001542F2CF01C0E902410461446131
:1027F00084612448016841F001010160006800F033
:10280000010000901E48FFF7FEFA119411A91C4820
:102810001294FFF7FFF86020CDE9020404940594B8
:1028200006940794002202A915480894FFF783FA3A
:102830000C2202A91248FFF77EFA09940A940B941D
:1028400068030C94CDE90D4009A90D481094FFF7D9
:10285000B7F80D4E032402220123D1013046CDE901
:10286000004500F00FFC0222012391023046CDE921
:10287000004500F007FC14B070BD000000000140EE
:1028800060010020443802400000024010B5044AB4
:102890000021044801F0B0FE0349086010BD0000AB
:1028A00040630008AD280008080000202DED028BD1
:1028B0005A2500269FED8A8ADFED8A8ADFF828A252
:1028C000DFF828B24FF0FF3900F064FFF0EE480A5D
:1028D000B0EE680AFFF7C0FCFFF7EAFC0B2184A00A
:1028E000FFF7B0FC854C94ED000ABDEEC01A11EE66
:1028F000100AFFF765FC012181A0FFF7A3FC94ED0E
:10290000010ABDEEC01A11EE100AFFF759FC0121B1
:102910007BA0FFF797FC94ED020ABDEEC01A11EE02
:10292000100AFFF74DFC012176A0FFF78BFC764FD4
:102930004946386801F0BCFD0C2174A0FFF782FC09
:102940005446DAF82C00FFF73BFC01216CA0FFF79E
:1029500079FC606AFFF734FC012169A0FFF772FC83
:10296000E069FFF72DFC012165A0FFF76BFC206AF1
:10297000FFF726FC012163A0FFF764FC0D2167A08F
:10298000FFF760FC2069FFF71BFC01215CA0FFF74B
:1029900059FCA068FFF714FC012159A0FFF752FC75
:1029A0002068FFF70DFC012155A0FFF74BFC606884
:1029B000FFF706FC012153A0FFF744FC386801F043
:1029C000EDFDDFF8688100245F460F35B42D00D996
:1029D0000025EDB2E0B2294600F06CF949463868AE
:1029E00001F066FD072152A0FFF72CFC2046FFF7FF
:1029F000E7FB012142A0FFF725FC18F80400FFF7D0
:102A0000DFFB01213FA0FFF71DFC386801F0C6FD88
:102A1000641C042CD9DB6436B6F57A7F00D96426B1
:102A20003046FEF7D9F8052143A0FFF70BFC444FD1
:102A30004946386801F03CFD092142A0FFF702FC3D
:102A4000434C2078FFF7BCFB01212DA0FFF7FAFBD8
:102A5000A068FFF7B5FB012129A0FFF7F3FB94ED78
:102A6000010ADFED3C0A20EE200ABDEEC01A11EE8D
:102A7000100AFFF7A5FB012121A0FFF7E3FBE068A7
:102A8000FFF79EFB01211FA0FFF7DCFB386801F078
:102A900085FD314FDFF8C48000244946386801F0D5
:102AA00007FD07212EA0FFF7CDFB2046FFF788FB8F
:102AB000012113A0FFF7C6FB58F82400FFF780FBA5
:102AC000012110A0FFF7BEFB386801F067FD641C10
:102AD000022CE2DB4FF4FA6001F0BEFBF4E60000EA
:102AE00000000000000048422002002014000020E6
:102AF0004B494E454D415449433A20003C03002088
:102B0000200000000A000000040000204D4F544F38
:102B1000525F4C4546543A20000000004D4F544F40
:102B2000525F52494748543A200000000C000020F0
:102B3000536572766F3A2000426565700A000000A6
:102B400030000020424154544552593A20000000C0
:102B5000EC0200200000C8423C0000204C00002095
:102B6000534F4E41523A20007CB522482049016023
:102B70004FF416514160002181600C22C160C0E910
:102B800004128161C1611C48016841F010010160BB
:102B9000006800F0100000901648FFF701FA0724C3
:102BA0000325164ECDE900540222002311023046BF
:102BB00000F068FACDE900540222002351023046A9
:102BC00000F060FA002205212520FEF70DFC2520EB
:102BD000FEF7FDFB00240A4E5A255A2135552046A2
:102BE00000F038F8641CE4B2042CF6D37CBD00007D
:102BF000001001405802002044380240000002400A
:102C00000C00002010B50A4801F088FC094C084A65
:102C10000421A0601032012001F0B0FB044AE06002
:102C2000243A0021044801F0E7FC606010BD000078
:102C3000886300080C000020ED2C000801B54FF659
:102C4000FF73012269460248FFF71CFA08BD000025
:102C50005802002000EE101A9FED141A70B5F8EE1D
:102C6000400A9FED130A054600EE810ABDEEC00A38
:102C700010EE100A04B24FF4FA70844203DB40F6FF
:102C8000C410844200DD0446FF20FFF7D7FF022076
:102C9000FFF7D4FF2846FFF7D1FFE0B2FFF7CEFFE2
:102CA000C4F30720BDE87040FFF7C8BF8FC23141B1
:102CB0000000FA43F8B50C4C0D4606464FF47A7105
:102CC000A06801F0F5FB00280CD18DF800608DF8AC
:102CD000015000231A466946E06801F089FBA068AC
:102CE00001F05CFCF8BD00000C000020104C08B5A1
:102CF0004FF0FF3526462B4600226946E06801F07A
:102D0000FDFA0028F7D12946A06801F0D1FB9DF813
:102D100000009DF801103154FFF79CFFE06801F0BE
:102D2000A9FB0A2001F098FAA06801F037FCE2E75D
:102D30000C0000207047000038B5134C6178B1B129
:102D4000012913D101784278114482781144C27864
:102D5000C9B28A420AD181784078002301EB002071
:102D600000901A466946E06801F042FB38BD0178E0
:102D7000FF29FBD101216170BDE838400322411CCD
:102D80000248FFF73FB9000034000020FC02002099
:102D90007CB51F481D4901604FF416514160002168
:102DA00081600C22C160C0E904128161C1611948CF
:102DB000016841F400210160006800F400200090E7
:102DC0001348FFF7EDF808240325134ECDE900540E
:102DD000002302220121304600F054F9CDE90054CD
:102DE000022200231146304600F04CF90022052152
:102DF0003420FEF7F9FA3420FEF7E9FA00F00EF875
:102E0000BDE87C40002000F02BB80000004C0040E2
:102E1000FC020020403802400000024038B5012486
:102E20000E4D2346224602212846009400F0D4F994
:102E300001231A4604212846009400F0CDF901230D
:102E40001A4608212846009400F0C6F901231A46C4
:102E500010212846009400F0BFF938BD0010024050
:102E600010B51C4C062833D2DFE800F0030511131F
:102E70001A1C002200E001220221204600F0CFF9B6
:102E800000220421204600F0CAF9002215E00022A9
:102E900000E001220221204600F0C1F90122F0E702
:102EA000002200E001220221204600F0B8F90022B1
:102EB0000421204600F0B3F901220821204600F049
:102EC000AEF920460022BDE81040102100F0A7B95D
:102ED00010BD00000010024010B50A4801F01EFBB2
:102EE000094C084A0421A0601032012001F046FA82
:102EF000044AE060243A0021044801F07DFB606050
:102F000010BD00005464000834000020292F000880
:102F100001B54FF6FF73012269460248FFF7B2F888
:102F200008BD0000FC020020184E00256F1E4FF463
:102F30009678A6F118043946A06801F0B9FA20780D
:102F4000FFF78EFF11496570012208391048FFF71D
:102F500059F8FF20FFF7DCFF2078434606EB80019D
:102F60000022E06801F0CAF9E06801F083FA2078F5
:102F7000411C022901D3002000E0401C2070A06801
:102F800001F00CFB642001F067F9D4E74C0000204D
:102F9000FC02002010B5502080F31188BFF34F8F42
:102FA000BFF36F8F02F0ACFF18B104494FF08050AF
:102FB0000860002080F3118810BD000004ED00E0DF
:102FC0000548016841F47001016003494FF0006059
:102FD000803908607047000088ED00E030B593B09C
:102FE00030216846FDF796F914210CA8FDF792F9F7
:102FF00022480025016841F080510160006800F01E
:10300000805011901E48016841F4804101600068C1
:10301000022400F480401190092000904FF4803089
:1030200001900120CDE905048005079008AA04203D
:10303000A82182E813000B906846FEF711FB0CA94B
:103040000F2081E831004FF4A0500F90E002109063
:1030500005210CA8FEF7FAF90848001D016841F4A3
:10306000804101600068002200F4804011900F212F
:10307000901EFEF7B9F913B030BD00004038024091
:10308000007000402DE9F04385B00E46DDE90C7874
:1030900081461D46144614216846FDF73BF9484613
:1030A00000F014F801AA009682E8B001694648468B
:1030B000FEF720F8012C01D0112C04D1002231465A
:1030C000484600F0ACF805B0BDE8F083394A08B5D1
:1030D000394990420AD10868C00715D1086840F004
:1030E00001000860086800F001000CE0334A9042DB
:1030F0000BD10868800707D4086840F00200086018
:10310000086800F00200009008BD2D4A90420AD1E4
:1031100008684007F8D4086840F0040008600868B0
:1031200000F00400EFE7274A90420AD10868000740
:10313000EAD4086840F008000860086800F0080059
:10314000E1E7214A90420AD10868C006DCD4086849
:1031500040F010000860086800F01000D3E71B4A38
:1031600090420AD108688006CED4086840F020005A
:103170000860086800F02000C5E7154A90420AD1AF
:1031800008684006C0D4086840F04000086008683D
:1031900000F04000B7E70F4A9042B5D1086800063A
:1031A000B2D4086840F080000860086800F0800031
:1031B000A9E700000000024030380240000402404D
:1031C00000080240000C02400010024000140240BF
:1031D00000180240001C02402DE9F04186B00E4666
:1031E00080461D461446142168460C9FFDF792F850
:1031F0004046FFF76BFF01AA009682E8B0006946DF
:103200004046FDF777FF012C01D0112C04D100229C
:103210003146404600F003F806B0BDE8F08189B2BF
:10322000FEF744B80148FEF7D2BC0000E0000020E1
:10323000F0B50268254C264D264E274F274B4FF000
:10324000804CA04209D0604507D0A84205D0B042CA
:1032500003D0B84201D0984204D122F0700E4A68DF
:1032600042EA0E02A0421BD0604519D0A84217D0F6
:10327000B04215D0B84213D0984211D0184DA84290
:103280000ED0184DA8420BD0174DA84208D0174DAC
:10329000A84205D0164DA84202D0164DA84203D12F
:1032A00022F44075CA682A434D6922F080022A43FD
:1032B00002608A68C2620A688262A04201D09842B3
:1032C00001D10969016301214161F0BD00000140A4
:1032D0000004004000080040000C004000040140D1
:1032E00000400140004401400048014000180040F7
:1032F000001C00400020004010B501F01F03012118
:10330000046A99408C430462016A9A401143016245
:1033100010BD0000F0B5026A22F001020262036AE9
:1033200042688469124E24F073050C682C4323F024
:1033300002058B682B430D4DA84201D0B04205D148
:1033400023F00807CB683B4323F00403A84201D0D5
:10335000B04205D14D6922F4407215438A692A436F
:1033600042608461496841630362F0BD000001402E
:1033700000040140F0B5026A22F010020262026A03
:10338000436884690D6824F4E64444EA05248D68A2
:1033900022F0200242EA05120F4D104EA84201D041
:1033A000B04206D1CF6822F0800242EA071222F032
:1033B0004002A84201D0B04207D14D6923F44063D6
:1033C00043EA85038D6943EA850343608461496864
:1033D00081630262F0BD0000000001400004014072
:1033E000F0B5026A22F480720262026A4368C4691C
:1033F00022F4007224F073050C68124E2C438D6881
:1034000042EA05220E4DA84201D0B04206D1CF6853
:1034100022F4006242EA072222F48062A84201D02C
:10342000B04207D14D6923F4405343EA05138D6937
:1034300043EA05134360C4614968C1630262F0BD99
:10344000000001400004014030B5026A22F48052BD
:103450000262046A4268C3690D6823F4E64343EAE2
:1034600005238D6824F4005444EA0534084DA8422D
:1034700002D0084DA84204D14D6922F4804242EAAC
:1034800085124260C36149680164046230BD000076
:10349000000001400004014010B501F0DDFD0028EE
:1034A00005D0D0E90021BDE810400846104710BD06
:1034B0000148FEF7EBBC0000FC02002010B5806B59
:1034C0000021C185C184FEF7DFFC10BD0168CA6818
:1034D00022F49072CA6001684A6922F001024A61CE
:1034E000202180F83A10704710B590F83A10222940
:1034F00001D0022010BD8168B1F5805F11D0016953
:10350000002901681FD0496801F07F03816A4A1CC5
:1035100082620B70C18D491E0904090CC18518D047
:103520002BE00269816A002A0268526805D0D2B293
:103530000A80816A491C8162ECE7C2F308020A80B2
:10354000816A891CF7E74A68816A4B1C83620A70AA
:10355000E0E70168CA6822F02002CA600168CA6810
:1035600022F48072CA6001684A6922F001024A614D
:10357000202180F83A10FEF76FFD002010BD0000FA
:103580002DE9F041044600680169E26821F44051E8
:10359000114301612169A068E2690843616911432F
:1035A00008432168CA6849F20C639A430243CA601F
:1035B00020684169A26921F4407111434161E069C9
:1035C000192764253226B0F5004F354A3549206861
:1035D0004FF0000806D0884201D0904236D1FDF766
:1035E000FFFF35E0884201D0904202D1FDF7F8FF9D
:1035F00001E0FDF7E5FF61684A18A0FB070148EB11
:103600000803FCF73DFE0146B0FBF5F00201B1FBFB
:10361000F5F06FF01803584301EB800006EBC00093
:10362000B0FBF5F000F0F80002EB4002B1FBF5F062
:10363000584301EB800006EBC000B0FBF5F000F052
:103640000700216810448860BDE8F081FDF7B8FFED
:1036500061688B0F8A00A0FB0701FCF711FE014691
:10366000B0FBF5F06FF01802504301EB800006EB61
:103670000010B0FBF5F000F0F002B1FBF5F002EB4A
:103680000012B1FBF5F06FF01803584301EB800016
:1036900006EB0010B0FBF5F000F00F00D1E70000E2
:1036A000001401400010014090F83910212901D088
:1036B000022070478168B1F5805F016A0BD04A1C17
:1036C0000262026809785160C18C491E0904090C24
:1036D000C1840ED017E009880268C1F30801516067
:1036E00001690029016A02D0491C0162ECE7891CCA
:1036F000FBE70168CA6822F08002CA600068C168FE
:1037000041F04001C160002070472DE9F04198462A
:1037100017460E460446069D1DE0681C1BD02DB1C1
:10372000FDF7CAFDA0EB0800A84214D92068C168C3
:1037300021F4D071C1602068416921F0010141612B
:10374000202084F8390084F83A00002084F83800FA
:103750000320BDE8F0812068006836EA000004D04C
:103760000020B842D9D00020F3E70120F9E700009B
:103770000148FEF78BBB0000580200200148FEF70D
:1037800085BB0000200100200148FEF77FBB000040
:10379000480500200148FDF7BEBD0000980200204A
:1037A000054804490160032141604FF47A6181605A
:1037B000FDF788BD003000409802002003B4019856
:1037C0004100009850EAC12018BF04204A0D18BFDC
:1037D00040F0010040F2FF72B2EB515F08BF40F0D1
:1037E0000200012808BF052002B070470907090E32
:1037F000002804DB00F1E02080F80014704700F09E
:103800000F0000F1E02080F8141D70470000000058
:1038100010B52F499FED2C1B2DED020B84B00598A0
:1038200020F000408842D8BF9DED040B2DDD2949D2
:10383000884209D1049840B94FF0010000F0D4FC4F
:1038400000F0A2FC06B010BD05DB9DED040B00F0FE
:103850008FFC06B010BD68469DED040B00F0A0F88B
:1038600010F0030004BF9DED021B9DED000B0CD07A
:1038700001280ED09DED021B9DED000B022817D0F4
:10388000012000F0DDFB06B010BD00F0A5FA06B087
:1038900010BD9DED021B9DED000B012000F0D0FB43
:1038A00051EC100B81F0004106B041EC100B10BD43
:1038B00000F092FA51EC100B81F0004106B041EC9F
:1038C000100B10BD00000000000000000000000010
:1038D000FB21E93F0000F07F10B52F499FED2C1B25
:1038E0002DED020B84B0059820F000408842DCBF2B
:1038F00000209DED040B32DD2849884209D104984F
:1039000040B94FF0010000F06FFC00F03DFC06B044
:1039100010BD05DB9DED040B00F02AFC06B010BDC8
:1039200068469DED040B00F03BF810F0030011D049
:10393000012818D09DED021B9DED000B02281AD026
:1039400000F04AFA51EC100B81F0004106B041EC56
:10395000100B10BD9DED021B9DED000B012000F032
:103960006FFB06B010BD9DED021B9DED000B00F03E
:1039700033FA06B010BD012000F062FB51EC100BD1
:1039800081F0004106B041EC100B10BD00000000BA
:103990000000000000000000FB21E93F0000F07F74
:1039A0002DE9F14F04462DED020B2DED088B8AB069
:1039B0009FEDE70B80ED020B139EE74826F00045D4
:1039C00085420ADC9DED120B002084ED000B0AB04D
:1039D000BDEC088B03B0BDE8F08FE0489FEDE0AB95
:1039E0009FEDE1BBA84247DDE14F9FEDE39B9FEDDB
:1039F000E48B9DED120B53EC1A2B51EC100B002EA7
:103A00001CDDFCF79AFE41EC100BBD4208D053ECD4
:103A10001B2B51EC100BFCF790FEC4E900010BE0EE
:103A200053EC192B51EC100BFCF787FE53EC182BC1
:103A3000FCF783FEC4E900010120C8E7FCF7DCFDC8
:103A400041EC100BBD4208D053EC1B2B51EC100B7A
:103A5000FCF7D2FDC4E900010BE053EC192B51EC4B
:103A6000100BFCF7C9FD53EC182BFCF7C5FDC4E99E
:103A700000014FF0FF30AAE7C348A84279DB9DED73
:103A8000120B51EC100B00F0B5FB41EC180B9FED45
:103A9000C00B53EC102BFCF748FC9FEDBF1B53EC05
:103AA000112BFCF7A9FDFCF7DBFE0746FCF7BAFE7D
:103AB00041EC190B53EC1A2BFCF737FC53EC182B89
:103AC000FCF73EFE41EC180B53EC1B2B51EC190B91
:103AD000FCF72BFCDFF8C8A241EC100B4FEA15589D
:103AE0000125FA4453EC102B51EC180BFCF725FE82
:103AF000032DC4E900013DD0C1F30A5005EB451187
:103B0000A8EB00001139814234DA0AEB051BB0EE54
:103B100048AA9BED000BF0EE68AA53EC102B51EC79
:103B2000190BFCF702FC41EC1B0B51EC1A0B53EC8C
:103B30001B2BFCF702FE41EC180B51EC1A0B53EC5B
:103B4000182BFCF7FAFD53EC1B2BFCF7F6FD9BED55
:103B5000020B41EC1A0B53EC102B51EC190BFCF738
:103B6000E4FB53EC1A2BFCF7E8FD41EC100B6D1C49
:103B7000B8E70EE0002EA8BF3846BFF628AF94ED98
:103B8000000B51EC100B81F00041C4E900017842B8
:103B90001DE7C6F3130040F4801EC6F30A50A0F2DE
:103BA000F530471100F01F05C5F12000DDF848B0E1
:103BB00008900020069007900520EC467949002DDA
:103BC00007EB0002794408BF51F8221009D051F8E0
:103BD000223001EB8201AB404A68089922FA01F1D8
:103BE0001943A1FB0E26A1FB0B131A449A4234BFC2
:103BF0000123002303EB06080CEB8003D3E901A6A5
:103C00000E448E4234BF0121002192448A4411B1F6
:103C1000924502D903E0924501D2012100E0002142
:103C2000C3E901A641444CF82010011EA0F1010097
:103C3000C4DC029800F10050850F0298DDE90367AB
:103C40008000DDF81480FCF7EDFD41EC1A0B3046E6
:103C5000FCF7F9FD9FED541B53EC112BFCF765FBB2
:103C600041EC1B0B3846FCF7EEFD9FED511B53EC6E
:103C7000112BFCF75AFB41EC180B4046FCF7E3FD17
:103C80009FED4D1B53EC112BFCF74FFB41EC190B37
:103C900051EC180B53EC192BFCF7AEFC53EC1B2B1F
:103CA000FCF7AAFC53EC1A2BFCF7A6FCCDE90801A3
:103CB000002008909DED080B53EC1A2B51EC100BD3
:103CC000FCF73BFD53EC1B2BFCF737FD53EC182B9B
:103CD000FCF733FD53EC192BFCF732FD9FED381B3D
:103CE00053EC112BFCF721FB9FED370B41EC180B2C
:103CF00053EC102B9DED080B51EC100BFCF715FB52
:103D000053EC182BFCF778FC9FED310B41EC180BB2
:103D100053EC102B9DED080B51EC100BFCF705FB41
:103D200053EC182BFCF768FC41EC100B139810F0C7
:103D3000004F06D06D4251EC100B81F0004141EC78
:103D4000100B284684ED000B41E600000000000047
:103D50000000000000000000FB21E93F7CD9024088
:103D600000004054FB21F93F3163621A61B4D03D39
:103D7000FB21F93F000000000000601A61B4D03D53
:103D80007370032E8A19A33BFB2139410000000008
:103D900083C8C96D305FE43F000000000000E03FD1
:103DA000E229000030290000000000000000103E61
:103DB000000000000000103C000000000000103A6D
:103DC000182D4454FB21F93D3326A611460B113C16
:103DD00000000054FB21F93D10B52DED040B2DED35
:103DE000088B82B0B0EE419AF0EE619A0B9820F009
:103DF00000449FED4BABB4F1795F11DA9DED0A0BF6
:103E000051EC100BFCF72CFD002801BFB0EE4A0A64
:103E1000F0EE6A0A02B0BDEC088B04BF04B010BD1E
:103E20009DED0A0B53EC102B51EC100BFCF77DFAB7
:103E300041EC180B3C480621B0EE480AF0EE680A47
:103E4000784400F081F853EC182B51EC100BFCF780
:103E50006CFA9DED0A0B41EC1B0B53EC192B51EC4A
:103E6000100BFCF762FA41EC190B53EC1B2B51ECD5
:103E7000180BFCF75AFA53EC192BFCF75EFC9FED7C
:103E80002C0B41EC190B53EC102B51EC180BFCF7DD
:103E90004CFA41EC100B2848844210DA53EC192BF1
:103EA00051EC100BFCF749FC53EC1A2BFCF748FCC7
:103EB00041EC100B02B0BDEC088B04B010BD1F48E4
:103EC000A042BCBF9FED1E1B8DED001B06DBA4F5C1
:103ED00000100190002000909DED001B51EC100B94
:103EE00053EC112BFCF729FC9DED000B41EC180B5A
:103EF00053EC102B51EC1A0BFCF71FFC41EC1A0B86
:103F000053EC192B51EC180BFCF717FC53EC1A2B44
:103F1000FCF716FC41EC100BCCE7000000000000A1
:103F2000000000000000F03F5426000000000000E8
:103F3000000000000000E03F3333D33F0000E93FC2
:103F4000000000000000D23F70B504462DED028B4A
:103F50004D1E00EBC500B0EE408AF0EE608A90ED99
:103F6000000B35F0060017D053EC182B51EC100B5A
:103F7000FCF7DBF941EC100B6D1E04EBC50090ED76
:103F8000001B51EC100B53EC112BFCF735FB41ECF3
:103F9000100B35F00600E7D1022D36D0042D1CD0D1
:103FA000062D1CBFBDEC028B70BD53EC182B51ECE1
:103FB000100BFCF7BAF994ED0A1B53EC112BFCF72C
:103FC0001BFB53EC182BFCF7B0F994ED081B53ECDA
:103FD000112BFCF711FB41EC100B53EC182B51EC9F
:103FE000100BFCF7A2F994ED061B53EC112BFCF718
:103FF00003FB53EC182BFCF798F994ED040B53ECEE
:10400000102BFCF7F9FA41EC100B53EC182B51EC88
:10401000100BFCF78AF994ED021B53EC112BFCF703
:10402000EBFA53EC182BFCF780F994ED001B53ECE2
:10403000112BFCF7E1FABDEC028B41EC100B70BDCB
:1040400031B504462DED040B2DED0A8BB0EE41BACF
:10405000F0EE61BA0B989DED0A0B20F00040B0F134
:10406000795F0DDA51EC100BFFF7A8FB042808BFAD
:1040700000F09AF89DED0A0BBDEC0A8B05B030BD3F
:1040800053EC102B51EC100BFCF74FF941EC180BD3
:104090009DED0A0B53EC182B51EC100BFCF745F976
:1040A00041EC190B2C48B0EE480AF0EE680A0521E5
:1040B0007844FFF749FF9FED2ACBB0EE40AAF0EE1F
:1040C00060AA9CB353EC1C2B51EC190BFCF72DF997
:1040D00041EC1C0B53EC1A2B51EC190BFCF725F996
:1040E0009FED210B41EC190B53EC102B51EC1B0BEA
:1040F000FCF71BF953EC192BFCF71FFB53EC182BA7
:10410000FCF713F953EC1B2BFCF717FB53EC1C2BA0
:10411000FCF713FB9DED0A1B53EC112BFCF710FB76
:10412000BDEC0A8B05B041EC100B30BDFFE753EC42
:104130001A2B51EC180BFCF7F8F853EC1C2BFCF77E
:104140005BFA53EC192BFCF7F0F89DED0A1B53ECCE
:10415000112BFCF751FAE3E7DC240000000000001B
:10416000495555555555C5BF000000000000E03FBA
:1041700010B553EC102B51EC100BFCF73DFA41EC51
:10418000100B10BD000000009FED050B10B553ECA7
:10419000102B51EC100BFCF7D6FA41EC100B10BDB4
:1041A00000000000000000009FED050B10B553EC6F
:1041B000102B51EC100BFCF7B8F841EC100B10BDB4
:1041C000000000000000001002E008C8121F08C133
:1041D000002AFAD170477047002001E001C1121F88
:1041E000002AFBD1704700000149086070470000B9
:1041F000DC00002082B0CDE9000121F000400190F8
:104200009DED000B02B051EC100B704710B5FDF79F
:1042100089F8FEF7E3FE00F039F8FDF791FFFEF7AD
:104220004DF9FCF7B1FCFEF79FFCFCF731FCFEF703
:10423000AFFDFFF7B5FAFEF79DF9FEF7E3FCFCF7DB
:10424000AFFCFCF72DFCFEF747FEFEF71FFB00F06E
:1042500037F8002010BD000010B5EFF3058179B9E3
:10426000EFF3108111B9EFF3118119B10649096813
:10427000022905D0002408B101F046F8204610BDFF
:104280006FF00504FAE70000B4000020EFF30580AA
:1042900068B9EFF310820949086812B9EFF3118287
:1042A0000AB1022803D028B14FF0FF3070476FF0F9
:1042B000050070470120086000207047B40000200E
:1042C00010B5EFF3058070B9EFF310820A49086862
:1042D00012B9EFF311820AB1022804D0012805D0E7
:1042E0004FF0FF3010BD6FF0050010BD02200860D8
:1042F00001F0BAF8002010BDB4000020F8B51D464A
:104300006FF003026FF002064FF00004EFF3058335
:10431000A3B9EFF3108313B9EFF311831BB1154B5E
:104320001B68022B0AD060B159B12A4601F076FB16
:10433000012810D075B16FF001040CE008B101B193
:104340000DB1144607E0002200926A4601F002FC1B
:10435000012802D034462046F8BD00980028FAD043
:1043600005494FF080500860BFF34F8FBFF36F8F48
:10437000F1E70000B400002004ED00E0F8B51446B9
:104380004FF00005EFF305826ABBEFF3108212B91C
:10439000EFF311821AB1154A1268022A23D010B322
:1043A00009B3ACB1D4E902326BB1502A1BD32269F4
:1043B000CAB1676900FB01F6B74214D30025009526
:1043C00001F086F907E072B9226962B9626952B9EF
:1043D000002201F059F9050005D00CB1216800E078
:1043E000002100F05BFF2846F8BD0000B40000206B
:1043F000F8B51D466FF003026FF002064FF000049F
:10440000EFF30583ABB9EFF3108313B9EFF3118327
:104410001BB1164B1B68022B0BD068B161B1002396
:104420002A4601F0CDF9012811D07DB16FF00104C9
:104430000DE008B101B10DB1144608E000221346A9
:1044400000926A4601F06CFA012802D034462046F8
:10445000F8BD00980028FAD005494FF08050086058
:10446000BFF34F8FBFF36F8FF1E70000B400002060
:1044700004ED00E010B5EFF3058181B9EFF3108191
:1044800011B9EFF3118119B108490968022906D061
:1044900040B10024214601F04FF9204610BD6FF0D5
:1044A0000504FAE76FF00304F7E70000B40000200A
:1044B0002DE9F0410D46014621F0010001F0010116
:1044C0004FF00004EFF30582A2B9EFF3108212B9A6
:1044D000EFF311821AB1104A1268022A0AD060B1B1
:1044E00000296FF001066FF0020729460BD001F09A
:1044F0003BFC0AE06FF005040BE06FF0030408E0FA
:1045000035B1344605E001F073FB0128F8D100E035
:104510003C462046BDE8F081B400002070B5054659
:104520004FF00004EFF30580A0BBEFF3108010B94B
:10453000EFF3118018B11848006802282AD00DB195
:10454000686800E00020C10701D0012600E00026D5
:1045500000071FD46DB1D5E9021021B1502819D33D
:104560001EB1042002E020B114E0012001F07FF828
:1045700005E00EB1042000E0012001F06DF8040018
:1045800008D00DB1296800E0002100F087FE0EB1CF
:1045900044F00104204670BDB400002070B501460F
:1045A00021F0010001F001014FF00004EFF305825A
:1045B00082B9EFF3108212B9EFF311821AB10D4AEA
:1045C0001268022A06D040B16FF0020541B101F035
:1045D00005FA0AE06FF005040AE06FF0030407E053
:1045E00000231A46194601F0EBF8012800D02C46AA
:1045F000204670BDB40000202DE9FF414FEA0103C1
:104600004FF00005EFF30581039599BBEFF310819F
:1046100011B9EFF3118119B11F490968022938D086
:1046200040B38026182100244AB3176807B13C46DE
:1046300097691FB139467F1E382F02D21779FF07BD
:1046400003D0002004B0BDE8F081576907B1BE086F
:10465000D2F808C0BCF1000F0DD0D5685C2D18D37E
:1046600012693AB137B18DE806103246214601F0A1
:1046700002FC03900DE0D7685FB912694AB903AA3A
:10468000CDE90012B2B2214601F0C8FB012800D0EA
:1046900003950398D6E70000B40000202DE9FC4103
:1046A0001C461746884606464FF00005EFF3058086
:1046B00078BBEFF3108010B9EFF3118018B11648F2
:1046C0000068022825D026B3082000F04DFC030026
:1046D0001FD0B8F1000FC3E9006711D001220F4EBF
:1046E00000208CB1216801B10846A16851B1E4688D
:1046F0002C2C0ED3CDE90061012101F095FD07E0DE
:104700000022ECE7E16821B90121009601F072FD79
:1047100005462846BDE8FC81B40000209934000815
:1047200008B5EFF30582B2B9EFF3108212B9EFF3D7
:1047300011821AB10C4A1268022A0CD070B1002200
:10474000134600920A46042101F0B6FD012808D064
:104750006FF0020008BD6FF0050008BD6FF00300A8
:1047600008BD002008BD0000B40000202DE9F04184
:10477000134C0F46054666692068001D00F094FC46
:10478000681C07D137B12168BDE8F0410D48091D0B
:1047900000F0DABC20683544B5424560216805D296
:1047A000A068BDE8F041091D00F0B6BC6068091DB5
:1047B00000F0B2FC206B854200D22563BDE8F08199
:1047C00064000020780A00202DE9F041054600F041
:1047D000C7FC2D4C2069401C206120682B4F10B174
:1047E000E06930B32BE025602069012827D100263D
:1047F00006EB860007EB800000F080FC761C382E6C
:10480000F6D3234800F07AFC2148143000F076FCFF
:104810001F48283000F072FC1D483C3000F06EFC50
:104820001B48503000F06AFC194860601430A060EA
:1048300005E02068E96AC06A884200D82560E06A1D
:10484000401CE0626864E86AA169884200D9A061FE
:1048500000EB800007EB8000291D00F075FC00F0E4
:104860009FFCE06900280CD02068E96AC06A884291
:1048700007D208494FF080500860BFF34F8FBFF355
:104880006F8FBDE8F081000064000020C8050020A3
:10489000280A002004ED00E038B500F061FC104C5F
:1048A000A068C8B90F4800F029FC0E48143000F089
:1048B00025FC0C482060143060600A4B002028332F
:1048C000009003F1500210210A2000F001FFA060C7
:1048D00010B105A100F0E2FCBDE8384000F060BC7A
:1048E000A00000208C0A0020546D725100000000CE
:1048F00030B4026C0B46002A0BD0C1681144C16071
:104900008468A14201D30168C16030BC1846FBF73E
:10491000E8BC30BC70472DE9F041856B1746044672
:104920000026026C82B1C7B1E068FBF7DAFCE168EF
:10493000206C091AE1602268914202D2A168081A2B
:10494000E060022F16D017E02068A8B9A06801F037
:104950003BFB06460020A0600EE06068FBF7C1FC50
:10496000216C606808446060A168884204D32068B4
:10497000606001E005B16D1E6D1CA5633046BDE8A9
:10498000F08110B5044690F8590058B101280CD0B8
:1049900002280FD0502080F31188BFF34F8FBFF350
:1049A0006F8FFEE7206B00F00FFC2046BDE8104043
:1049B00000F00ABC10BD000010484FF470514207CF
:1049C00006D0C01D0D4920F00700411AC1F57051F5
:1049D0000B4A00230144C2E900030839103A21F0D0
:1049E000070111604B600B600B1AC0E90013936064
:1049F0004FF000405360D060704700005C1600200C
:104A0000C8000020144E154CA6F29C474FF0805869
:104A1000DFF84C9012E000BF00F0A2FBF068C56820
:104A2000281D00F041FB2069401E2061E068401E07
:104A3000E06000F0B5FB2846FFF7A3FFE068002820
:104A4000EAD138680128F9D9C9F80080BFF34F8F3F
:104A5000BFF36F8FF2E70000640A002064000020BB
:104A600004ED00E0002807D00021816001600B46C2
:104A70000A46C16000F0A4BE7047000070B51D4634
:104A8000049C51B1C4F80020C4E90F010121204663
:104A900000F052FE84F84C5070BD2460F4E7000032
:104AA0002DE9F05F8846DDE90B94154683469100B9
:104AB0009A460A9EA522206BFBF725FC6FF00301A6
:104AC000206B01EB8501084420F00707780707D029
:104AD000502080F31188BFF34F8FBFF36F8FFEE735
:104AE0000025B8F1000F0FD05FF00000221818F871
:104AF000001082F8341018F8001011B1401C102872
:104B0000F4D384F8435001E084F83450382E00D3B5
:104B10003726E662C4E91365201D00F0FAFA04F1B5
:104B2000180000F0F6FA2461C6F138006462A06152
:104B3000656584F8585052465946384600F09EFA4A
:104B40002060B9F1000F01D0C9F80040BDE8F09F26
:104B50002DE9F0471E46DDE9089417460D00804612
:104B600015D0002C11D0FFF797FE04F11801C4F8FE
:104B7000008081E86002201D00F0CBFA002F04D0F5
:104B800014F8280F40F004002070BDE8F087502092
:104B900080F31188BFF34F8FBFF36F8FFEE70000E4
:104BA00030B5114900E011460A688242FBD34B68D8
:104BB0005C18844203D14068184448600846436842
:104BC0001C18944209D1084C103C2468A24209D018
:104BD00052681A4442600A6812680260814200D03A
:104BE000086030BD0460F9E7C800002070B50024FB
:104BF00041600B4D0061914206D8D11A8269914201
:104C000006D2011D686807E09A4203D2994201D397
:104C1000012403E0011D286800F07EFA204670BDE3
:104C2000A000002010B5044600F09AFAA06B28B14D
:104C30005FF0000400F0B4FA204610BD0124F9E74B
:104C400030B589B03C4D6EE00498002806DADDE905
:104C50000601059A90470498002864DB069C606969
:104C600010B1201D00F020FA03A800F0D7F802468A
:104C700004980A2857D2DFE800F00505052D334ACD
:104C800005052D3394F8280040F0010084F8280031
:104C90000599A069059B01442046FFF7A7FF68B36B
:104CA000216A2046884794F8280040073BD5002019
:104CB00000900598A169002342181946204601F08A
:104CC000FBFAD8B9502080F31188BFF34F8FBFF3A0
:104CD0006F8FFEE714F8280F20F00100207022E00B
:104CE00094F8280040F0010084F828000598A0619D
:104CF00028B1811813462046FFF778FF13E05020B3
:104D000080F31188BFF34F8FBFF36F8FFEE794F8E6
:104D10002800810703D4204600F056FA03E020F073
:104D2000010084F82800002204A9A86800F076FE9B
:104D3000002889D109B030BDA00000202DE9FC4138
:104D40000F46054600F0D4FB01A800F067F80446C2
:104D5000019818B101F0ECF9BDE8FC81254EAFB126
:104D600070680068D0B30027291B3A46B06800F08D
:104D7000A9FA01F0DDF90028EED11F494FF080506B
:104D80000860BFF34F8FBFF36F8FE5E7A542EBD805
:104D900001F0CEF930682746C068C468201D00F0D5
:104DA00083F994F82800410719D5A0692B464119C9
:104DB0003A462046FFF71AFFA8B1002003460146F5
:104DC00000902A46204601F077FA60B9502080F31F
:104DD0001188BFF34F8FBFF36F8FFEE707E020F01E
:104DE000010084F82800216A20468847B4E701279B
:104DF000BAE70000A000002004ED00E0064841688A
:104E0000096829B14168C968C96849680163704780
:104E10004FF0FF31FAE700006400002070B505464E
:104E200001F068F8064E04463069844203D200F06F
:104E300009F8012000E0002028602046346170BDA0
:104E4000A0000020F8B5194D20E0C068C4680668CD
:104E5000201D00F029F9216A2046884794F828008F
:104E6000400713D5A0693044B04206D92461606080
:104E7000211D286800F050F908E000200346014693
:104E800000903246204601F017FA38B128680168D0
:104E90000029DAD16968C5E90010F8BD502080F317
:104EA0001188BFF34F8FBFF36F8FFEE7A000002084
:104EB00008484068401C4FF0500080F3118804D02F
:104EC000BFF34F8FBFF36F8FFEE7BFF34F8FBFF37B
:104ED0006F8FFEE7D0000020074C2068016841B1C9
:104EE000C0680021D0F80000FFF728FFFFF7A8FEF8
:104EF000F3E701210020F7E7A00000202DE9F041B1
:104F0000044600F02DF994F9455004F1240609E017
:104F1000606A48B1304601F0D3F808B100F022FAD7
:104F20006D1E6DB2002DF3DC4FF0FF3684F8456046
:104F300000F036F900F014F994F9445004F1100728
:104F400009E0206948B1384601F0BAF808B100F02C
:104F500009FA6D1E6DB2002DF3DC84F84460BDE8E3
:104F6000F04100F01DB900002DE9F0410546002791
:104F700000F0BEFA314E306808B9FFF71DFDF06849
:104F800005424BD1C5B3083568070ED005F00700C0
:104F9000C0F108000544680707D0502080F311884D
:104FA000BFF34F8FBFF36F8FFEE72DB3706885425D
:104FB00034D82248103001460C6801E020460C46E7
:104FC0006168A94202D221680029F7D131688C4278
:104FD00024D007682168016060680837411B1029E8
:104FE0000FD96019420708D0502080F31188BFF311
:104FF0004F8FBFF36F8FFEE710E041606560FFF7F2
:10500000CFFD61687068401A7060B268904200D24B
:10501000B060F06801430020C4E9000101F088F8A5
:10502000780707D0502080F31188BFF34F8FBFF36C
:105030006F8FFEE73846BDE8F0810000B800002021
:105040000449086818B10868026D521C02650868B6
:10505000704700006400002010B5040006D000F086
:105060007FF8E46900F09CF8204610BD502080F3E2
:105070001188BFF34F8FBFF36F8FFEE710B5031F8B
:105080004FF080741C601B1F21F001011960191F73
:10509000044B0B6014390A60091F6FF00202443898
:1050A0000A6010BDB14E0008D0E9013201699A6072
:1050B000D0E901235A604A68824201D182684A607D
:1050C000002202610868401E0860086870470000FE
:1050D000034B036003F15C000860802010607047A0
:1050E000A40B0020044B036003F15C0008604FF444
:1050F0000070106070470000000E002000F10801F1
:105100004FF0FF32C0E90112C1600161002101606E
:10511000704700210161704730B50B685A1C02D0FE
:1051200000F1080202E0026904E0224654682568A2
:105130009D42FAD953684B6099608A60516008615A
:105140000168491C016030BD42684A6093688B6009
:1051500093685960916008610168491C016070475B
:10516000502080F31188BFF34F8FBFF36F8F0A4930
:105170004868401C486001280CD10848006810F0BD
:10518000FF0F07D0502080F31188BFF34F8FBFF37C
:105190006F8FFEE770470000D000002004ED00E0B4
:1051A0000849486828B1401E486001D180F3118841
:1051B0007047502080F31188BFF34F8FBFF36F8F7C
:1051C000FEE70000D000002070B5002827D0144D65
:1051D000A0F108046168E868014207D1502080F31B
:1051E0001188BFF34F8FBFF36F8FFEE722683AB18C
:1051F000502080F31188BFF34F8FBFF36F8FFEE70E
:105200008143616000F074F960686968084468600F
:105210002046FFF7C5FCBDE8704000F089BF70BDB7
:10522000B80000204FF0E0200021016181610549B4
:105230004FF47A720968B1FBF2F1491E416107210E
:10524000016170476000002010B5FBF703F81149B9
:1052500010280ED300F1E02090F8F0030A78904275
:1052600007D2502080F31188BFF34F8FBFF36F8FA9
:10527000FEE709480068896800F4E060884207D9C1
:10528000502080F31188BFF34F8FBFF36F8FFEE77D
:1052900010BD0000D00000200CED00E010B5084B60
:1052A000002200BF53F832401CB1521C082AF9D327
:1052B00010BD43F8321003EBC201486010BD00007E
:1052C0008805002070B515460E460446FFF748FFD6
:1052D00094F944100020491C01D184F8440094F949
:1052E0004510491C01D184F84500FFF759FFA06B18
:1052F00028B92A46314604F1240000F051F820462E
:10530000BDE87040FFF7FABD10B5020014D00F4899
:10531000806B38B1502080F31188BFF34F8FBFF3FB
:105320006F8FFEE700F0E4F800211046FFF71EFA49
:1053300000F0FEFE002807D105494FF080500860BC
:10534000BFF34F8FBFF36F8F10BD000064000020CC
:1053500004ED00E002498A6A0260496941607047D1
:105360006400002001490120486270476400002069
:1053700010B50C4650B1094909681831FFF7CCFE49
:105380002046BDE810400121FFF7F0B9502080F31E
:105390001188BFF34F8FBFF36F8FFEE764000020CB
:1053A00070B514460D4668B10A4909681831FFF70F
:1053B000CBFE0CB14FF0FF3521462846BDE87040CA
:1053C000FFF7D4B9502080F31188BFF34F8FBFF39C
:1053D0006F8FFEE76400002070B504003ED0226DA0
:1053E000A2B1E06C884200D30146E06A884235D021
:1053F000012A33D11A4D2A6894420FD1502080F3EC
:105400001188BFF34F8FBFF36F8FFEE7502080F3FB
:105410001188BFF34F8FBFF36F8FFEE7E162A26980
:10542000002A02DBC1F13801A1610E4E00EB8000C1
:10543000616906EB8000814210D1201DFFF734FE28
:10544000E06AA969884200D9A86100EB800006EBF8
:105450008000211DBDE87040FFF776BE70BD0000E2
:1054600064000020C805002030B587B000240394F4
:1054700005AA04A903A80494FFF72AFEDDE90301A5
:105480000094CDE90110002315A11748059A00F0FA
:10549000F2FC164D002868631FD000F0DDFE0128E5
:1054A00009D0401C19D1502080F31188BFF34F8FD1
:1054B000BFF36F8FFEE7502080F31188BFF34F8F4B
:1054C000BFF36F8F4FF0FF3028630120E8616C61FC
:1054D00007B0BDE8304000F045B807B030BD00006F
:1054E00049444C4500000000054A000864000020C3
:1054F0000248816B491C81637047000064000020F2
:10550000164810B5816B11B10121416210BD002117
:1055100041628169124A01E0B9B1491E01EB810380
:1055200052F82330002BF7D001EB810302EB83020A
:1055300002F1080453685B685360A34201D15B68C1
:105540005360DA680260816110BD502080F31188D9
:10555000BFF34F8FBFF36F8FFEE7000064000020A2
:10556000C80500201CB537480168374A914207D169
:10557000502080F31188BFF34F8FBFF36F8FFEE78A
:1055800000683149491E884207D1502080F31188B4
:10559000BFF34F8FBFF36F8FFEE72C490878019060
:1055A000FF20087008788DF800009DF800009DF835
:1055B000002000F0F000904207D0502080F31188C6
:1055C000BFF34F8FBFF36F8FFEE79DF80000204BB6
:1055D00000F0500018700720986005E09DF800204A
:1055E00052008DF80020401E9DF800201206F5D4D0
:1055F0009860032807D0502080F31188BFF34F8FA5
:10560000BFF36F8FFEE74FF4407098600198087009
:105610000C482030016841F470010160016841F0DC
:1056200070410160FFF7FEFD00205860FAF7DAFDD7
:105630000848016841F040410160FAF7BFFD0020D1
:105640001CBD000000ED00E071C20F4100E400E06D
:10565000D000002034EF00E010B502460021012008
:1056600000F012F80446FFF7FDF9204610BD38B5EA
:105670000B46002200901146012000F029F8044654
:10568000FFF7F0F9204638BDF8B517460E4605007D
:1056900014D0DEB105FB06F05030FFF765FC0400C6
:1056A0000AD0002084F8460004F150023B463146FF
:1056B00028460094FFF7E2F92046F8BD502080F319
:1056C0001188BFF34F8FBFF36F8FFEE70020E3E732
:1056D00038B5049D18B153B1CAB181B120E0502052
:1056E00080F31188BFF34F8FBFF36F8FFEE7502019
:1056F00080F31188BFF34F8FBFF36F8FFEE7502009
:1057000080F31188BFF34F8FBFF36F8FFEE739B17E
:10571000502080F31188BFF34F8FBFF36F8FFEE7E8
:1057200050241C46012384F846302B460094FFF792
:10573000A5F9204638BD000070B50D46040025D0FF
:10574000FFF70EFDD4E90F20216802FB0011A160D4
:105750000021A163216861600A46D4E90F01401E5F
:1057600000FB0121E16021464FF0FF3001F8440FBA
:10577000487004F110008DB1FFF7C0FC04F1240063
:10578000FFF7BCFCFFF70CFD012070BD502080F33B
:105790001188BFF34F8FBFF36F8FFEE72169002998
:1057A000F0D000F08DFC0028ECD004494FF0805080
:1057B0000860BFF34F8FBFF36F8FE3E704ED00E0A6
:1057C0002DE9FF4782B01D468A464FF000080400CD
:1057D00003D0BAF1000F08D011E0502080F31188F7
:1057E000BFF34F8FBFF36F8FFEE7206C38B15020AF
:1057F00080F31188BFF34F8FBFF36F8FFEE7022D49
:105800000AD1E06B012807D0502080F31188BFF344
:105810004F8FBFF36F8FFEE700F05EFB3F4F4FF0FF
:1058200000094FF0805648B9049838B1502080F3F1
:105830001188BFF34F8FBFF36F8FFEE7FFF790FC28
:10584000A06BE16B884207D3022D05D00498D0B13C
:10585000B8F1000F1AD01EE02A4651462046FFF745
:105860005AF8616A19B104F1240000F029FC20B152
:105870003E60BFF34F8FBFF36F8FFFF791FC0120A6
:1058800006B0BDE8F087FFF78BFC22E06846FFF723
:1058900061FD4FF00108FFF783FCFFF729FEFFF7DA
:1058A0005FFC94F94400401C01D184F8449094F9C1
:1058B0004500401C01D184F84590FFF771FC04A914
:1058C000684600F071FA30B12046FFF717FB00F090
:1058D0002FFC0020D4E7FFF743FCA06BE16B88426C
:1058E00013D1FFF75DFC04F110000499FFF740FDB0
:1058F0002046FFF703FB00F01BFC00289ED13E6012
:10590000BFF34F8FBFF36F8F98E7FFF749FC204637
:10591000FFF7F4FA00F00CFC90E7000004ED00E063
:105920002DE9F0471F4690468946040003D0B9F19F
:10593000000F08D011E0502080F31188BFF34F8F83
:10594000BFF36F8FFEE7206C38B1502080F31188D1
:10595000BFF34F8FBFF36F8FFEE7022F0AD1E06BCB
:10596000012807D0502080F31188BFF34F8FBFF379
:105970006F8FFEE7FFF768FC5020EFF3118680F38E
:105980001188BFF34F8FBFF36F8FA06BE16B88421D
:1059900006D3022F04D0002086F31188BDE8F087DB
:1059A00094F945503A4649462046FEF7B4FF681C34
:1059B00004D06D1C84F845500120EDE7606A002892
:1059C000FAD004F1240000F07BFB0028F4D0B8F1F9
:1059D000000FF1D00121C8F80010EDE710B5040068
:1059E00009D000F073FAA168884214D1E068401E23
:1059F000E06008D00DE0502080F31188BFF34F8F96
:105A0000BFF36F8FFEE700231A4619462046FFF7C3
:105A1000D7FE012010BD002010BD00002DE9F74782
:105A2000002683B08A46040003D0BAF1000F08D0E4
:105A300011E0502080F31188BFF34F8FBFF36F8FB9
:105A4000FEE7206C38B1502080F31188BFF34F8FF0
:105A5000BFF36F8FFEE700F03FFADFF8F4804FF0FE
:105A600000094FF0805748B9059838B1502080F3AD
:105A70001188BFF34F8FBFF36F8FFEE7FFF770FB07
:105A8000A56BC5B151462046FEF732FF6D1EA563DA
:105A9000206950B104F1100000F012FB28B1C8F8E1
:105AA0000070BFF34F8FBFF36F8FFFF779FB0120BB
:105AB00006B0BDE8F087059808B11EB106E0FFF713
:105AC0006FFB27E06846FFF745FC0126FFF768FB00
:105AD000FFF70EFDFFF744FB94F94400401C01D191
